{
  "contractName": "addApp",
  "abi": [
    {
      "inputs": [
        {
          "internalType": "address",
          "name": "addr",
          "type": "address"
        }
      ],
      "stateMutability": "nonpayable",
      "type": "constructor"
    },
    {
      "inputs": [
        {
          "internalType": "uint32",
          "name": "id",
          "type": "uint32"
        },
        {
          "internalType": "address",
          "name": "addr",
          "type": "address"
        }
      ],
      "name": "newMember",
      "outputs": [],
      "stateMutability": "nonpayable",
      "type": "function"
    }
  ],
  "bytecode": "0x608060405234801561001057600080fd5b506040516105be3803806105be8339818101604052810190610032919061008d565b806000806101000a81548173ffffffffffffffffffffffffffffffffffffffff021916908373ffffffffffffffffffffffffffffffffffffffff160217905550506100ff565b600081519050610087816100e8565b92915050565b60006020828403121561009f57600080fd5b60006100ad84828501610078565b91505092915050565b60006100c1826100c8565b9050919050565b600073ffffffffffffffffffffffffffffffffffffffff82169050919050565b6100f1816100b6565b81146100fc57600080fd5b50565b6104b08061010e6000396000f3fe608060405234801561001057600080fd5b506004361061002b5760003560e01c8063adabe9c014610030575b600080fd5b61004a6004803603810190610045919061027f565b61004c565b005b60008054906101000a900473ffffffffffffffffffffffffffffffffffffffff1673ffffffffffffffffffffffffffffffffffffffff166391d148547fe9382a7c65097a9587879afb193759dbfc4bfcfdf3e5a296379d7f2e1e5cacd16100b161020f565b6040518363ffffffff1660e01b81526004016100ce92919061030b565b60206040518083038186803b1580156100e657600080fd5b505afa1580156100fa573d6000803e3d6000fd5b505050506040513d601f19601f8201168201806040525081019061011e9190610256565b61015d576040517f08c379a000000000000000000000000000000000000000000000000000000000815260040161015490610334565b60405180910390fd5b60008054906101000a900473ffffffffffffffffffffffffffffffffffffffff1673ffffffffffffffffffffffffffffffffffffffff1663aaa7c9e083836040518363ffffffff1660e01b81526004016101b8929190610354565b602060405180830381600087803b1580156101d257600080fd5b505af11580156101e6573d6000803e3d6000fd5b505050506040513d601f19601f8201168201806040525081019061020a9190610256565b505050565b600033905090565b60008135905061022681610435565b92915050565b60008151905061023b8161044c565b92915050565b60008135905061025081610463565b92915050565b60006020828403121561026857600080fd5b60006102768482850161022c565b91505092915050565b6000806040838503121561029257600080fd5b60006102a085828601610241565b92505060206102b185828601610217565b9150509250929050565b6102c48161038e565b82525050565b6102d3816103ac565b82525050565b60006102e660288361037d565b91506102f1826103e6565b604082019050919050565b610305816103d6565b82525050565b600060408201905061032060008301856102ca565b61032d60208301846102bb565b9392505050565b6000602082019050818103600083015261034d816102d9565b9050919050565b600060408201905061036960008301856102fc565b61037660208301846102bb565b9392505050565b600082825260208201905092915050565b6000610399826103b6565b9050919050565b60008115159050919050565b6000819050919050565b600073ffffffffffffffffffffffffffffffffffffffff82169050919050565b600063ffffffff82169050919050565b7f617070204572726f723a205468652073656e646572206973206e6f742061206460008201527f6576656c6f706572000000000000000000000000000000000000000000000000602082015250565b61043e8161038e565b811461044957600080fd5b50565b610455816103a0565b811461046057600080fd5b50565b61046c816103d6565b811461047757600080fd5b5056fea26469706673582212209c8168e07db751c8fedf09cbfc3953869db3f3eae51dbde236968ba887edf7a564736f6c63430008030033",
  "immutableReferences": {},
  "source": "// SPDX-License-Identifier: MIT\r\n\r\n\r\npragma solidity ^0.8.0;\r\n\r\nimport \"./Membership_Storage.sol\";\r\n\r\ncontract addApp is Context {\r\n\r\n\tMembership_Storage stor;\r\n\r\n\tconstructor(address addr){\r\n\t\tstor = Membership_Storage(addr);\r\n\t}\r\n\r\n\tmodifier onlyDevelopers() {\r\n\t\trequire(stor.hasRole(keccak256(\"Developer\"),_msgSender()),\"app Error: The sender is not a developer\");\r\n\t\t_;\r\n\t}\r\n\r\n\tfunction newMember(uint32 id,address addr) public onlyDevelopers() {\r\n\t\tstor.addMember(id,addr);\r\n\t}\r\n}",
  "sourcePath": "C:/Users/ruben/OneDrive/Desktop/SC Test/contracts/addApp.sol",
  "compiler": {
    "name": "solc",
    "version": "0.8.3+commit.8d00100c.Emscripten.clang"
  },
  "schemaVersion": "3.3.4",
  "updatedAt": "2021-04-20T21:45:09.387Z",
  "devdoc": {
    "kind": "dev",
    "methods": {},
    "version": 1
  },
  "userdoc": {
    "kind": "user",
    "methods": {},
    "version": 1
  }
}