{
  "contractName": "BD_Storage",
  "abi": [
    {
      "inputs": [
        {
          "internalType": "address",
          "name": "addr",
          "type": "address"
        }
      ],
      "stateMutability": "nonpayable",
      "type": "constructor"
    },
    {
      "anonymous": false,
      "inputs": [
        {
          "indexed": true,
          "internalType": "bytes32",
          "name": "role",
          "type": "bytes32"
        },
        {
          "indexed": true,
          "internalType": "bytes32",
          "name": "previousAdminRole",
          "type": "bytes32"
        },
        {
          "indexed": true,
          "internalType": "bytes32",
          "name": "newAdminRole",
          "type": "bytes32"
        }
      ],
      "name": "RoleAdminChanged",
      "type": "event"
    },
    {
      "anonymous": false,
      "inputs": [
        {
          "indexed": true,
          "internalType": "bytes32",
          "name": "role",
          "type": "bytes32"
        },
        {
          "indexed": true,
          "internalType": "address",
          "name": "account",
          "type": "address"
        },
        {
          "indexed": true,
          "internalType": "address",
          "name": "sender",
          "type": "address"
        }
      ],
      "name": "RoleGranted",
      "type": "event"
    },
    {
      "anonymous": false,
      "inputs": [
        {
          "indexed": true,
          "internalType": "bytes32",
          "name": "role",
          "type": "bytes32"
        },
        {
          "indexed": true,
          "internalType": "address",
          "name": "account",
          "type": "address"
        },
        {
          "indexed": true,
          "internalType": "address",
          "name": "sender",
          "type": "address"
        }
      ],
      "name": "RoleRevoked",
      "type": "event"
    },
    {
      "inputs": [],
      "name": "AppRole",
      "outputs": [
        {
          "internalType": "bytes32",
          "name": "",
          "type": "bytes32"
        }
      ],
      "stateMutability": "view",
      "type": "function",
      "constant": true
    },
    {
      "inputs": [],
      "name": "BD_Admin",
      "outputs": [
        {
          "internalType": "bytes32",
          "name": "",
          "type": "bytes32"
        }
      ],
      "stateMutability": "view",
      "type": "function",
      "constant": true
    },
    {
      "inputs": [],
      "name": "BD_Role",
      "outputs": [
        {
          "internalType": "bytes32",
          "name": "",
          "type": "bytes32"
        }
      ],
      "stateMutability": "view",
      "type": "function",
      "constant": true
    },
    {
      "inputs": [],
      "name": "DEFAULT_ADMIN_ROLE",
      "outputs": [
        {
          "internalType": "bytes32",
          "name": "",
          "type": "bytes32"
        }
      ],
      "stateMutability": "view",
      "type": "function",
      "constant": true
    },
    {
      "inputs": [],
      "name": "DeveloperAdmin",
      "outputs": [
        {
          "internalType": "bytes32",
          "name": "",
          "type": "bytes32"
        }
      ],
      "stateMutability": "view",
      "type": "function",
      "constant": true
    },
    {
      "inputs": [],
      "name": "DeveloperRole",
      "outputs": [
        {
          "internalType": "bytes32",
          "name": "",
          "type": "bytes32"
        }
      ],
      "stateMutability": "view",
      "type": "function",
      "constant": true
    },
    {
      "inputs": [
        {
          "internalType": "bytes32",
          "name": "role",
          "type": "bytes32"
        }
      ],
      "name": "getRoleAdmin",
      "outputs": [
        {
          "internalType": "bytes32",
          "name": "",
          "type": "bytes32"
        }
      ],
      "stateMutability": "view",
      "type": "function",
      "constant": true
    },
    {
      "inputs": [
        {
          "internalType": "bytes32",
          "name": "role",
          "type": "bytes32"
        },
        {
          "internalType": "address",
          "name": "account",
          "type": "address"
        }
      ],
      "name": "grantRole",
      "outputs": [],
      "stateMutability": "nonpayable",
      "type": "function"
    },
    {
      "inputs": [
        {
          "internalType": "bytes32",
          "name": "role",
          "type": "bytes32"
        },
        {
          "internalType": "address",
          "name": "account",
          "type": "address"
        }
      ],
      "name": "hasRole",
      "outputs": [
        {
          "internalType": "bool",
          "name": "",
          "type": "bool"
        }
      ],
      "stateMutability": "view",
      "type": "function",
      "constant": true
    },
    {
      "inputs": [
        {
          "internalType": "bytes32",
          "name": "role",
          "type": "bytes32"
        },
        {
          "internalType": "address",
          "name": "account",
          "type": "address"
        }
      ],
      "name": "renounceRole",
      "outputs": [],
      "stateMutability": "nonpayable",
      "type": "function"
    },
    {
      "inputs": [
        {
          "internalType": "bytes32",
          "name": "role",
          "type": "bytes32"
        },
        {
          "internalType": "address",
          "name": "account",
          "type": "address"
        }
      ],
      "name": "revokeRole",
      "outputs": [],
      "stateMutability": "nonpayable",
      "type": "function"
    },
    {
      "inputs": [
        {
          "internalType": "bytes4",
          "name": "interfaceId",
          "type": "bytes4"
        }
      ],
      "name": "supportsInterface",
      "outputs": [
        {
          "internalType": "bool",
          "name": "",
          "type": "bool"
        }
      ],
      "stateMutability": "view",
      "type": "function",
      "constant": true
    },
    {
      "inputs": [],
      "name": "getHeadOfBD",
      "outputs": [
        {
          "internalType": "uint32",
          "name": "",
          "type": "uint32"
        }
      ],
      "stateMutability": "view",
      "type": "function",
      "constant": true
    },
    {
      "inputs": [
        {
          "internalType": "uint32",
          "name": "id",
          "type": "uint32"
        }
      ],
      "name": "setHeadOfBD",
      "outputs": [],
      "stateMutability": "nonpayable",
      "type": "function"
    }
  ],
  "bytecode": "0x60806040523480156200001157600080fd5b506040516200183738038062001837833981810160405281019062000037919062000435565b80600160006101000a81548173ffffffffffffffffffffffffffffffffffffffff021916908373ffffffffffffffffffffffffffffffffffffffff160217905550620000ca7fc5fff0dde223d64cf95ed473c30f9a9702db2fe3568966d58520e118e5e3bbfc7f779f146a66cad703e552a4597eb58d37f14962a3c7006b7888d0428a51448b1b6200022960201b60201c565b6200011c7fe9382a7c65097a9587879afb193759dbfc4bfcfdf3e5a296379d7f2e1e5cacd17ff05d823bbeb808d3bce7a83576fb0aee6c31e1ca11c8e28b7234628855d54aa56200022960201b60201c565b6200016e7fb2b9c4740a8cb34b25aeee55b113c8140ec06bcb20cce0d897e3a1fdcc5528d87ff05d823bbeb808d3bce7a83576fb0aee6c31e1ca11c8e28b7234628855d54aa56200022960201b60201c565b620001a07f779f146a66cad703e552a4597eb58d37f14962a3c7006b7888d0428a51448b1b306200028660201b60201c565b620001e17ff05d823bbeb808d3bce7a83576fb0aee6c31e1ca11c8e28b7234628855d54aa5620001d56200029c60201b60201c565b6200028660201b60201c565b620002227fe9382a7c65097a9587879afb193759dbfc4bfcfdf3e5a296379d7f2e1e5cacd1620002166200029c60201b60201c565b6200028660201b60201c565b50620004af565b806200023b83620002a460201b60201c565b837fbd79b86ffe0ab8e8776151514217cd7cacd52c909f66475c3af44e129f0b00ff60405160405180910390a480600080848152602001908152602001600020600101819055505050565b620002988282620002c360201b60201c565b5050565b600033905090565b6000806000838152602001908152602001600020600101549050919050565b620002d58282620003b460201b60201c565b620003b057600160008084815260200190815260200160002060000160008373ffffffffffffffffffffffffffffffffffffffff1673ffffffffffffffffffffffffffffffffffffffff16815260200190815260200160002060006101000a81548160ff021916908315150217905550620003556200029c60201b60201c565b73ffffffffffffffffffffffffffffffffffffffff168173ffffffffffffffffffffffffffffffffffffffff16837f2f8788117e7eff1d82e926ec794901d17c78024a50270940304540a733656f0d60405160405180910390a45b5050565b600080600084815260200190815260200160002060000160008373ffffffffffffffffffffffffffffffffffffffff1673ffffffffffffffffffffffffffffffffffffffff16815260200190815260200160002060009054906101000a900460ff16905092915050565b6000815190506200042f8162000495565b92915050565b6000602082840312156200044857600080fd5b600062000458848285016200041e565b91505092915050565b60006200046e8262000475565b9050919050565b600073ffffffffffffffffffffffffffffffffffffffff82169050919050565b620004a08162000461565b8114620004ac57600080fd5b50565b61137880620004bf6000396000f3fe608060405234801561001057600080fd5b50600436106100ea5760003560e01c8063416d30201161008c578063a217fddf11610066578063a217fddf1461024d578063c1edb0da1461026b578063d547741f14610287578063eb400eb6146102a3576100ea565b8063416d3020146101e1578063439e1a94146101ff57806391d148541461021d576100ea565b8063248a9ca3116100c8578063248a9ca31461015b578063287e70d01461018b5780632f2ff15d146101a957806336568abe146101c5576100ea565b806301ffc9a7146100ef578063125a4ecb1461011f5780631fe2bcc01461013d575b600080fd5b61010960048036038101906101049190610dc6565b6102c1565b6040516101169190610f26565b60405180910390f35b61012761033b565b6040516101349190611045565b60405180910390f35b610145610355565b6040516101529190610f41565b60405180910390f35b61017560048036038101906101709190610d61565b610379565b6040516101829190610f41565b60405180910390f35b610193610398565b6040516101a09190610f41565b60405180910390f35b6101c360048036038101906101be9190610d8a565b6103bc565b005b6101df60048036038101906101da9190610d8a565b610422565b005b6101e96104a5565b6040516101f69190610f41565b60405180910390f35b6102076104c9565b6040516102149190610f41565b60405180910390f35b61023760048036038101906102329190610d8a565b6104ed565b6040516102449190610f26565b60405180910390f35b610255610557565b6040516102629190610f41565b60405180910390f35b61028560048036038101906102809190610def565b61055e565b005b6102a1600480360381019061029c9190610d8a565b6109c1565b005b6102ab610a27565b6040516102b89190610f41565b60405180910390f35b60007f7965db0b000000000000000000000000000000000000000000000000000000007bffffffffffffffffffffffffffffffffffffffffffffffffffffffff1916827bffffffffffffffffffffffffffffffffffffffffffffffffffffffff19161480610334575061033382610a4b565b5b9050919050565b6000600160149054906101000a900463ffffffff16905090565b7f779f146a66cad703e552a4597eb58d37f14962a3c7006b7888d0428a51448b1b81565b6000806000838152602001908152602001600020600101549050919050565b7ff05d823bbeb808d3bce7a83576fb0aee6c31e1ca11c8e28b7234628855d54aa581565b6103d56103c883610379565b6103d0610ab5565b6104ed565b610414576040517f08c379a000000000000000000000000000000000000000000000000000000000815260040161040b90610fa5565b60405180910390fd5b61041e8282610abd565b5050565b61042a610ab5565b73ffffffffffffffffffffffffffffffffffffffff168173ffffffffffffffffffffffffffffffffffffffff1614610497576040517f08c379a000000000000000000000000000000000000000000000000000000000815260040161048e90611025565b60405180910390fd5b6104a18282610b9d565b5050565b7fe9382a7c65097a9587879afb193759dbfc4bfcfdf3e5a296379d7f2e1e5cacd181565b7fb2b9c4740a8cb34b25aeee55b113c8140ec06bcb20cce0d897e3a1fdcc5528d881565b600080600084815260200190815260200160002060000160008373ffffffffffffffffffffffffffffffffffffffff1673ffffffffffffffffffffffffffffffffffffffff16815260200190815260200160002060009054906101000a900460ff16905092915050565b6000801b81565b610584610569610ab5565b73ffffffffffffffffffffffffffffffffffffffff16610c7e565b6105c3576040517f08c379a00000000000000000000000000000000000000000000000000000000081526004016105ba90610fe5565b60405180910390fd5b6105f47fb2b9c4740a8cb34b25aeee55b113c8140ec06bcb20cce0d897e3a1fdcc5528d86105ef610ab5565b6104ed565b610633576040517f08c379a000000000000000000000000000000000000000000000000000000000815260040161062a90610fc5565b60405180910390fd5b600160009054906101000a900473ffffffffffffffffffffffffffffffffffffffff1673ffffffffffffffffffffffffffffffffffffffff1663a50c7b3f826040518263ffffffff1660e01b815260040161068e9190611045565b60206040518083038186803b1580156106a657600080fd5b505afa1580156106ba573d6000803e3d6000fd5b505050506040513d601f19601f820116820180604052508101906106de9190610d38565b61071d576040517f08c379a000000000000000000000000000000000000000000000000000000000815260040161071490610f85565b60405180910390fd5b3073ffffffffffffffffffffffffffffffffffffffff1663d547741f7fc5fff0dde223d64cf95ed473c30f9a9702db2fe3568966d58520e118e5e3bbfc600160009054906101000a900473ffffffffffffffffffffffffffffffffffffffff1673ffffffffffffffffffffffffffffffffffffffff1663fb3c42af600160149054906101000a900463ffffffff166040518263ffffffff1660e01b81526004016107c79190611045565b60206040518083038186803b1580156107df57600080fd5b505afa1580156107f3573d6000803e3d6000fd5b505050506040513d601f19601f820116820180604052508101906108179190610d0f565b6040518363ffffffff1660e01b8152600401610834929190610f5c565b600060405180830381600087803b15801561084e57600080fd5b505af1158015610862573d6000803e3d6000fd5b505050503073ffffffffffffffffffffffffffffffffffffffff16632f2ff15d7fc5fff0dde223d64cf95ed473c30f9a9702db2fe3568966d58520e118e5e3bbfc600160009054906101000a900473ffffffffffffffffffffffffffffffffffffffff1673ffffffffffffffffffffffffffffffffffffffff1663fb3c42af856040518263ffffffff1660e01b81526004016108fe9190611045565b60206040518083038186803b15801561091657600080fd5b505afa15801561092a573d6000803e3d6000fd5b505050506040513d601f19601f8201168201806040525081019061094e9190610d0f565b6040518363ffffffff1660e01b815260040161096b929190610f5c565b600060405180830381600087803b15801561098557600080fd5b505af1158015610999573d6000803e3d6000fd5b5050505080600160146101000a81548163ffffffff021916908363ffffffff16021790555050565b6109da6109cd83610379565b6109d5610ab5565b6104ed565b610a19576040517f08c379a0000000000000000000000000000000000000000000000000000000008152600401610a1090611005565b60405180910390fd5b610a238282610b9d565b5050565b7fc5fff0dde223d64cf95ed473c30f9a9702db2fe3568966d58520e118e5e3bbfc81565b60007f01ffc9a7000000000000000000000000000000000000000000000000000000007bffffffffffffffffffffffffffffffffffffffffffffffffffffffff1916827bffffffffffffffffffffffffffffffffffffffffffffffffffffffff1916149050919050565b600033905090565b610ac782826104ed565b610b9957600160008084815260200190815260200160002060000160008373ffffffffffffffffffffffffffffffffffffffff1673ffffffffffffffffffffffffffffffffffffffff16815260200190815260200160002060006101000a81548160ff021916908315150217905550610b3e610ab5565b73ffffffffffffffffffffffffffffffffffffffff168173ffffffffffffffffffffffffffffffffffffffff16837f2f8788117e7eff1d82e926ec794901d17c78024a50270940304540a733656f0d60405160405180910390a45b5050565b610ba782826104ed565b15610c7a57600080600084815260200190815260200160002060000160008373ffffffffffffffffffffffffffffffffffffffff1673ffffffffffffffffffffffffffffffffffffffff16815260200190815260200160002060006101000a81548160ff021916908315150217905550610c1f610ab5565b73ffffffffffffffffffffffffffffffffffffffff168173ffffffffffffffffffffffffffffffffffffffff16837ff6391f5c32d9c69d2a47ea670b442974b53935d1edc7fd64eb21e047a839171b60405160405180910390a45b5050565b600080823b905060008111915050919050565b600081359050610ca0816112cf565b92915050565b600081519050610cb5816112cf565b92915050565b600081519050610cca816112e6565b92915050565b600081359050610cdf816112fd565b92915050565b600081359050610cf481611314565b92915050565b600081359050610d098161132b565b92915050565b600060208284031215610d2157600080fd5b6000610d2f84828501610ca6565b91505092915050565b600060208284031215610d4a57600080fd5b6000610d5884828501610cbb565b91505092915050565b600060208284031215610d7357600080fd5b6000610d8184828501610cd0565b91505092915050565b60008060408385031215610d9d57600080fd5b6000610dab85828601610cd0565b9250506020610dbc85828601610c91565b9150509250929050565b600060208284031215610dd857600080fd5b6000610de684828501610ce5565b91505092915050565b600060208284031215610e0157600080fd5b6000610e0f84828501610cfa565b91505092915050565b610e2181611071565b82525050565b610e3081611083565b82525050565b610e3f8161108f565b82525050565b6000610e52603583611060565b9150610e5d826110f5565b604082019050919050565b6000610e75602f83611060565b9150610e8082611144565b604082019050919050565b6000610e98602b83611060565b9150610ea382611193565b604082019050919050565b6000610ebb602a83611060565b9150610ec6826111e2565b604082019050919050565b6000610ede603083611060565b9150610ee982611231565b604082019050919050565b6000610f01602f83611060565b9150610f0c82611280565b604082019050919050565b610f20816110e5565b82525050565b6000602082019050610f3b6000830184610e27565b92915050565b6000602082019050610f566000830184610e36565b92915050565b6000604082019050610f716000830185610e36565b610f7e6020830184610e18565b9392505050565b60006020820190508181036000830152610f9e81610e45565b9050919050565b60006020820190508181036000830152610fbe81610e68565b9050919050565b60006020820190508181036000830152610fde81610e8b565b9050919050565b60006020820190508181036000830152610ffe81610eae565b9050919050565b6000602082019050818103600083015261101e81610ed1565b9050919050565b6000602082019050818103600083015261103e81610ef4565b9050919050565b600060208201905061105a6000830184610f17565b92915050565b600082825260208201905092915050565b600061107c826110c5565b9050919050565b60008115159050919050565b6000819050919050565b60007fffffffff0000000000000000000000000000000000000000000000000000000082169050919050565b600073ffffffffffffffffffffffffffffffffffffffff82169050919050565b600063ffffffff82169050919050565b7f73746f72616765204552524f523a20546869732073747564656e74206973206e60008201527f6f7420696e20746865206173736f63696174696f6e0000000000000000000000602082015250565b7f416363657373436f6e74726f6c3a2073656e646572206d75737420626520616e60008201527f2061646d696e20746f206772616e740000000000000000000000000000000000602082015250565b7f616363657373204552524f523a205468652073656e646572206973206e6f742060008201527f6120425342434120417070000000000000000000000000000000000000000000602082015250565b7f616363657373204552524f523a205468652073656e646572206973206e6f742060008201527f6120636f6e747261637400000000000000000000000000000000000000000000602082015250565b7f416363657373436f6e74726f6c3a2073656e646572206d75737420626520616e60008201527f2061646d696e20746f207265766f6b6500000000000000000000000000000000602082015250565b7f416363657373436f6e74726f6c3a2063616e206f6e6c792072656e6f756e636560008201527f20726f6c657320666f722073656c660000000000000000000000000000000000602082015250565b6112d881611071565b81146112e357600080fd5b50565b6112ef81611083565b81146112fa57600080fd5b50565b6113068161108f565b811461131157600080fd5b50565b61131d81611099565b811461132857600080fd5b50565b611334816110e5565b811461133f57600080fd5b5056fea26469706673582212208a22224dc5b4de58525567c7d335fd2386264209d035bd67606ccadf442ee2ef64736f6c63430008030033",
  "immutableReferences": {},
  "source": "// SPDX-License-Identifier: MIT\r\n\r\n\r\npragma solidity ^0.8.0;\r\n\r\nimport \"./BD_AccessManagement.sol\";\r\nimport \"./Membership_Storage.sol\";\r\n    \r\n\r\ncontract BD_Storage is BD_AccessManagement {\r\n    \r\n    Membership_Storage private stor;\r\n    \r\n    uint32 private BusinessDevelopment;\r\n    \r\n    constructor(address addr) {\r\n        stor = Membership_Storage(addr);\r\n        \r\n        _setRoleAdmin(BD_Role, BD_Admin);\r\n        _setRoleAdmin(DeveloperRole, DeveloperAdmin);   \r\n        _setRoleAdmin(AppRole, DeveloperAdmin);\r\n        \r\n        _setupRole(BD_Admin, address(this));\r\n        _setupRole(DeveloperAdmin, _msgSender());   \r\n        _setupRole(DeveloperRole, _msgSender());\r\n    }\r\n\r\n    //heads getters\r\n    function getHeadOfBD() public view returns(uint32) {\r\n        return BusinessDevelopment;\r\n    }\r\n    \r\n     //heads SETTERS\r\n    function setHeadOfBD(uint32 id) public onlyApps() {\r\n        require(stor._isMember(id),\"storage ERROR: This student is not in the association\");\r\n        this.revokeRole(BD_Role, stor._idToAddress(BusinessDevelopment));\r\n        \r\n        this.grantRole(BD_Role, stor._idToAddress(id));\r\n        BusinessDevelopment = id;\r\n    }\r\n    \r\n}",
  "sourcePath": "C:/Users/ruben/OneDrive/Desktop/SC Test/contracts/BD_Storage.sol",
  "compiler": {
    "name": "solc",
    "version": "0.8.3+commit.8d00100c.Emscripten.clang"
  },
  "schemaVersion": "3.3.4",
  "updatedAt": "2021-04-20T20:48:05.122Z",
  "networkType": "ethereum",
  "devdoc": {
    "kind": "dev",
    "methods": {
      "getRoleAdmin(bytes32)": {
        "details": "Returns the admin role that controls `role`. See {grantRole} and {revokeRole}. To change a role's admin, use {_setRoleAdmin}."
      },
      "grantRole(bytes32,address)": {
        "details": "Grants `role` to `account`. If `account` had not been already granted `role`, emits a {RoleGranted} event. Requirements: - the caller must have ``role``'s admin role."
      },
      "hasRole(bytes32,address)": {
        "details": "Returns `true` if `account` has been granted `role`."
      },
      "renounceRole(bytes32,address)": {
        "details": "Revokes `role` from the calling account. Roles are often managed via {grantRole} and {revokeRole}: this function's purpose is to provide a mechanism for accounts to lose their privileges if they are compromised (such as when a trusted device is misplaced). If the calling account had been granted `role`, emits a {RoleRevoked} event. Requirements: - the caller must be `account`."
      },
      "revokeRole(bytes32,address)": {
        "details": "Revokes `role` from `account`. If `account` had been granted `role`, emits a {RoleRevoked} event. Requirements: - the caller must have ``role``'s admin role."
      },
      "supportsInterface(bytes4)": {
        "details": "See {IERC165-supportsInterface}."
      }
    },
    "version": 1
  },
  "userdoc": {
    "kind": "user",
    "methods": {},
    "version": 1
  }
}