{
  "contractName": "ControlPanel",
  "abi": [
    {
      "inputs": [
        {
          "internalType": "address",
          "name": "addr",
          "type": "address"
        }
      ],
      "stateMutability": "nonpayable",
      "type": "constructor"
    },
    {
      "inputs": [
        {
          "internalType": "address",
          "name": "addr",
          "type": "address"
        }
      ],
      "name": "pushCheck",
      "outputs": [
        {
          "internalType": "bool",
          "name": "",
          "type": "bool"
        }
      ],
      "stateMutability": "view",
      "type": "function",
      "constant": true
    },
    {
      "inputs": [
        {
          "internalType": "address",
          "name": "addr",
          "type": "address"
        }
      ],
      "name": "pullCheck",
      "outputs": [
        {
          "internalType": "bool",
          "name": "",
          "type": "bool"
        }
      ],
      "stateMutability": "view",
      "type": "function",
      "constant": true
    },
    {
      "inputs": [
        {
          "internalType": "address",
          "name": "addr",
          "type": "address"
        }
      ],
      "name": "approvePush",
      "outputs": [
        {
          "internalType": "bool",
          "name": "",
          "type": "bool"
        }
      ],
      "stateMutability": "nonpayable",
      "type": "function"
    },
    {
      "inputs": [
        {
          "internalType": "address",
          "name": "addr",
          "type": "address"
        }
      ],
      "name": "approvePull",
      "outputs": [
        {
          "internalType": "bool",
          "name": "",
          "type": "bool"
        }
      ],
      "stateMutability": "nonpayable",
      "type": "function"
    },
    {
      "inputs": [
        {
          "internalType": "address",
          "name": "addr",
          "type": "address"
        },
        {
          "internalType": "uint32",
          "name": "id",
          "type": "uint32"
        }
      ],
      "name": "pushMember",
      "outputs": [],
      "stateMutability": "nonpayable",
      "type": "function"
    },
    {
      "inputs": [
        {
          "internalType": "address",
          "name": "addr",
          "type": "address"
        }
      ],
      "name": "pullMember",
      "outputs": [],
      "stateMutability": "nonpayable",
      "type": "function"
    }
  ],
  "bytecode": "0x60806040523480156200001157600080fd5b5060405162001e0638038062001e06833981810160405281019062000037919062000095565b806000806101000a81548173ffffffffffffffffffffffffffffffffffffffff021916908373ffffffffffffffffffffffffffffffffffffffff160217905550506200010f565b6000815190506200008f81620000f5565b92915050565b600060208284031215620000a857600080fd5b6000620000b8848285016200007e565b91505092915050565b6000620000ce82620000d5565b9050919050565b600073ffffffffffffffffffffffffffffffffffffffff82169050919050565b6200010081620000c1565b81146200010c57600080fd5b50565b611ce7806200011f6000396000f3fe608060405234801561001057600080fd5b50600436106100625760003560e01c80633e1c3242146100675780634c340a8a1461009757806358a10ba1146100c7578063924d8959146100e35780639cd779dd14610113578063e992f00f14610143575b600080fd5b610081600480360381019061007c91906118d2565b61015f565b60405161008e9190611a49565b60405180910390f35b6100b160048036038101906100ac91906118d2565b6107c8565b6040516100be9190611a49565b60405180910390f35b6100e160048036038101906100dc91906118d2565b6108dc565b005b6100fd60048036038101906100f891906118d2565b610d40565b60405161010a9190611a49565b60405180910390f35b61012d600480360381019061012891906118d2565b6113a8565b60405161013a9190611a49565b60405180910390f35b61015d600480360381019061015891906118fb565b6114b9565b005b60008060009054906101000a900473ffffffffffffffffffffffffffffffffffffffff1673ffffffffffffffffffffffffffffffffffffffff166391d148547f06b2055d93e553612466ee9779ff29190c1fdb855eea0fe494815df32fcc8f576101c7611876565b6040518363ffffffff1660e01b81526004016101e4929190611a64565b60206040518083038186803b1580156101fc57600080fd5b505afa158015610210573d6000803e3d6000fd5b505050506040513d601f19601f820116820180604052508101906102349190611937565b8061030d575060008054906101000a900473ffffffffffffffffffffffffffffffffffffffff1673ffffffffffffffffffffffffffffffffffffffff166391d148547fae859dbad5e51a494d82a7b9d670af7d3b55c073201ddfd69cbf9f9c31d0825861029f611876565b6040518363ffffffff1660e01b81526004016102bc929190611a64565b60206040518083038186803b1580156102d457600080fd5b505afa1580156102e8573d6000803e3d6000fd5b505050506040513d601f19601f8201168201806040525081019061030c9190611937565b5b806103e6575060008054906101000a900473ffffffffffffffffffffffffffffffffffffffff1673ffffffffffffffffffffffffffffffffffffffff166391d148547fe4908534c74d6a5bdfd3b1ff6c0cdaff6418140d4c5c84d5c706dfe7e9fdc28e610378611876565b6040518363ffffffff1660e01b8152600401610395929190611a64565b60206040518083038186803b1580156103ad57600080fd5b505afa1580156103c1573d6000803e3d6000fd5b505050506040513d601f19601f820116820180604052508101906103e59190611937565b5b610425576040517f08c379a000000000000000000000000000000000000000000000000000000000815260040161041c90611a8d565b60405180910390fd5b60008054906101000a900473ffffffffffffffffffffffffffffffffffffffff1673ffffffffffffffffffffffffffffffffffffffff166391d148547fae859dbad5e51a494d82a7b9d670af7d3b55c073201ddfd69cbf9f9c31d0825861048a611876565b6040518363ffffffff1660e01b81526004016104a7929190611a64565b60206040518083038186803b1580156104bf57600080fd5b505afa1580156104d3573d6000803e3d6000fd5b505050506040513d601f19601f820116820180604052508101906104f79190611937565b15610559576000600160008473ffffffffffffffffffffffffffffffffffffffff1673ffffffffffffffffffffffffffffffffffffffff16815260200190815260200160002060006101000a81548160ff0219169083151502179055506107bf565b60008054906101000a900473ffffffffffffffffffffffffffffffffffffffff1673ffffffffffffffffffffffffffffffffffffffff166391d148547f06b2055d93e553612466ee9779ff29190c1fdb855eea0fe494815df32fcc8f576105be611876565b6040518363ffffffff1660e01b81526004016105db929190611a64565b60206040518083038186803b1580156105f357600080fd5b505afa158015610607573d6000803e3d6000fd5b505050506040513d601f19601f8201168201806040525081019061062b9190611937565b1561068d576000600260008473ffffffffffffffffffffffffffffffffffffffff1673ffffffffffffffffffffffffffffffffffffffff16815260200190815260200160002060006101000a81548160ff0219169083151502179055506107be565b60008054906101000a900473ffffffffffffffffffffffffffffffffffffffff1673ffffffffffffffffffffffffffffffffffffffff166391d148547fe4908534c74d6a5bdfd3b1ff6c0cdaff6418140d4c5c84d5c706dfe7e9fdc28e6106f2611876565b6040518363ffffffff1660e01b815260040161070f929190611a64565b60206040518083038186803b15801561072757600080fd5b505afa15801561073b573d6000803e3d6000fd5b505050506040513d601f19601f8201168201806040525081019061075f9190611937565b156107bd576000600360008473ffffffffffffffffffffffffffffffffffffffff1673ffffffffffffffffffffffffffffffffffffffff16815260200190815260200160002060006101000a81548160ff0219169083151502179055505b5b5b60019050919050565b6000600160008373ffffffffffffffffffffffffffffffffffffffff1673ffffffffffffffffffffffffffffffffffffffff16815260200190815260200160002060009054906101000a900460ff1615801561086e5750600260008373ffffffffffffffffffffffffffffffffffffffff1673ffffffffffffffffffffffffffffffffffffffff16815260200190815260200160002060009054906101000a900460ff16155b80156108c45750600360008373ffffffffffffffffffffffffffffffffffffffff1673ffffffffffffffffffffffffffffffffffffffff16815260200190815260200160002060009054906101000a900460ff16155b156108d257600190506108d7565b600090505b919050565b60008054906101000a900473ffffffffffffffffffffffffffffffffffffffff1673ffffffffffffffffffffffffffffffffffffffff166391d148547f06b2055d93e553612466ee9779ff29190c1fdb855eea0fe494815df32fcc8f57610941611876565b6040518363ffffffff1660e01b815260040161095e929190611a64565b60206040518083038186803b15801561097657600080fd5b505afa15801561098a573d6000803e3d6000fd5b505050506040513d601f19601f820116820180604052508101906109ae9190611937565b80610a87575060008054906101000a900473ffffffffffffffffffffffffffffffffffffffff1673ffffffffffffffffffffffffffffffffffffffff166391d148547fae859dbad5e51a494d82a7b9d670af7d3b55c073201ddfd69cbf9f9c31d08258610a19611876565b6040518363ffffffff1660e01b8152600401610a36929190611a64565b60206040518083038186803b158015610a4e57600080fd5b505afa158015610a62573d6000803e3d6000fd5b505050506040513d601f19601f82011682018060405250810190610a869190611937565b5b80610b60575060008054906101000a900473ffffffffffffffffffffffffffffffffffffffff1673ffffffffffffffffffffffffffffffffffffffff166391d148547fe4908534c74d6a5bdfd3b1ff6c0cdaff6418140d4c5c84d5c706dfe7e9fdc28e610af2611876565b6040518363ffffffff1660e01b8152600401610b0f929190611a64565b60206040518083038186803b158015610b2757600080fd5b505afa158015610b3b573d6000803e3d6000fd5b505050506040513d601f19601f82011682018060405250810190610b5f9190611937565b5b610b9f576040517f08c379a0000000000000000000000000000000000000000000000000000000008152600401610b9690611a8d565b60405180910390fd5b610ba8816107c8565b610be7576040517f08c379a0000000000000000000000000000000000000000000000000000000008152600401610bde90611aad565b60405180910390fd5b60008054906101000a900473ffffffffffffffffffffffffffffffffffffffff1673ffffffffffffffffffffffffffffffffffffffff166396889a1a60008054906101000a900473ffffffffffffffffffffffffffffffffffffffff1673ffffffffffffffffffffffffffffffffffffffff1663eb5be07e846040518263ffffffff1660e01b8152600401610c7c9190611a2e565b60206040518083038186803b158015610c9457600080fd5b505afa158015610ca8573d6000803e3d6000fd5b505050506040513d601f19601f82011682018060405250810190610ccc9190611960565b836040518363ffffffff1660e01b8152600401610cea929190611aed565b602060405180830381600087803b158015610d0457600080fd5b505af1158015610d18573d6000803e3d6000fd5b505050506040513d601f19601f82011682018060405250810190610d3c9190611937565b5050565b60008060009054906101000a900473ffffffffffffffffffffffffffffffffffffffff1673ffffffffffffffffffffffffffffffffffffffff166391d148547f06b2055d93e553612466ee9779ff29190c1fdb855eea0fe494815df32fcc8f57610da8611876565b6040518363ffffffff1660e01b8152600401610dc5929190611a64565b60206040518083038186803b158015610ddd57600080fd5b505afa158015610df1573d6000803e3d6000fd5b505050506040513d601f19601f82011682018060405250810190610e159190611937565b80610eee575060008054906101000a900473ffffffffffffffffffffffffffffffffffffffff1673ffffffffffffffffffffffffffffffffffffffff166391d148547fae859dbad5e51a494d82a7b9d670af7d3b55c073201ddfd69cbf9f9c31d08258610e80611876565b6040518363ffffffff1660e01b8152600401610e9d929190611a64565b60206040518083038186803b158015610eb557600080fd5b505afa158015610ec9573d6000803e3d6000fd5b505050506040513d601f19601f82011682018060405250810190610eed9190611937565b5b80610fc7575060008054906101000a900473ffffffffffffffffffffffffffffffffffffffff1673ffffffffffffffffffffffffffffffffffffffff166391d148547fe4908534c74d6a5bdfd3b1ff6c0cdaff6418140d4c5c84d5c706dfe7e9fdc28e610f59611876565b6040518363ffffffff1660e01b8152600401610f76929190611a64565b60206040518083038186803b158015610f8e57600080fd5b505afa158015610fa2573d6000803e3d6000fd5b505050506040513d601f19601f82011682018060405250810190610fc69190611937565b5b611006576040517f08c379a0000000000000000000000000000000000000000000000000000000008152600401610ffd90611a8d565b60405180910390fd5b60008054906101000a900473ffffffffffffffffffffffffffffffffffffffff1673ffffffffffffffffffffffffffffffffffffffff166391d148547fae859dbad5e51a494d82a7b9d670af7d3b55c073201ddfd69cbf9f9c31d0825861106b611876565b6040518363ffffffff1660e01b8152600401611088929190611a64565b60206040518083038186803b1580156110a057600080fd5b505afa1580156110b4573d6000803e3d6000fd5b505050506040513d601f19601f820116820180604052508101906110d89190611937565b156111395760018060008473ffffffffffffffffffffffffffffffffffffffff1673ffffffffffffffffffffffffffffffffffffffff16815260200190815260200160002060006101000a81548160ff02191690831515021790555061139f565b60008054906101000a900473ffffffffffffffffffffffffffffffffffffffff1673ffffffffffffffffffffffffffffffffffffffff166391d148547f06b2055d93e553612466ee9779ff29190c1fdb855eea0fe494815df32fcc8f5761119e611876565b6040518363ffffffff1660e01b81526004016111bb929190611a64565b60206040518083038186803b1580156111d357600080fd5b505afa1580156111e7573d6000803e3d6000fd5b505050506040513d601f19601f8201168201806040525081019061120b9190611937565b1561126d576001600260008473ffffffffffffffffffffffffffffffffffffffff1673ffffffffffffffffffffffffffffffffffffffff16815260200190815260200160002060006101000a81548160ff02191690831515021790555061139e565b60008054906101000a900473ffffffffffffffffffffffffffffffffffffffff1673ffffffffffffffffffffffffffffffffffffffff166391d148547fe4908534c74d6a5bdfd3b1ff6c0cdaff6418140d4c5c84d5c706dfe7e9fdc28e6112d2611876565b6040518363ffffffff1660e01b81526004016112ef929190611a64565b60206040518083038186803b15801561130757600080fd5b505afa15801561131b573d6000803e3d6000fd5b505050506040513d601f19601f8201168201806040525081019061133f9190611937565b1561139d576001600360008473ffffffffffffffffffffffffffffffffffffffff1673ffffffffffffffffffffffffffffffffffffffff16815260200190815260200160002060006101000a81548160ff0219169083151502179055505b5b5b60019050919050565b6000600160008373ffffffffffffffffffffffffffffffffffffffff1673ffffffffffffffffffffffffffffffffffffffff16815260200190815260200160002060009054906101000a900460ff16801561144c5750600260008373ffffffffffffffffffffffffffffffffffffffff1673ffffffffffffffffffffffffffffffffffffffff16815260200190815260200160002060009054906101000a900460ff165b80156114a15750600360008373ffffffffffffffffffffffffffffffffffffffff1673ffffffffffffffffffffffffffffffffffffffff16815260200190815260200160002060009054906101000a900460ff165b156114af57600190506114b4565b600090505b919050565b60008054906101000a900473ffffffffffffffffffffffffffffffffffffffff1673ffffffffffffffffffffffffffffffffffffffff166391d148547f06b2055d93e553612466ee9779ff29190c1fdb855eea0fe494815df32fcc8f5761151e611876565b6040518363ffffffff1660e01b815260040161153b929190611a64565b60206040518083038186803b15801561155357600080fd5b505afa158015611567573d6000803e3d6000fd5b505050506040513d601f19601f8201168201806040525081019061158b9190611937565b80611664575060008054906101000a900473ffffffffffffffffffffffffffffffffffffffff1673ffffffffffffffffffffffffffffffffffffffff166391d148547fae859dbad5e51a494d82a7b9d670af7d3b55c073201ddfd69cbf9f9c31d082586115f6611876565b6040518363ffffffff1660e01b8152600401611613929190611a64565b60206040518083038186803b15801561162b57600080fd5b505afa15801561163f573d6000803e3d6000fd5b505050506040513d601f19601f820116820180604052508101906116639190611937565b5b8061173d575060008054906101000a900473ffffffffffffffffffffffffffffffffffffffff1673ffffffffffffffffffffffffffffffffffffffff166391d148547fe4908534c74d6a5bdfd3b1ff6c0cdaff6418140d4c5c84d5c706dfe7e9fdc28e6116cf611876565b6040518363ffffffff1660e01b81526004016116ec929190611a64565b60206040518083038186803b15801561170457600080fd5b505afa158015611718573d6000803e3d6000fd5b505050506040513d601f19601f8201168201806040525081019061173c9190611937565b5b61177c576040517f08c379a000000000000000000000000000000000000000000000000000000000815260040161177390611a8d565b60405180910390fd5b611785826113a8565b6117c4576040517f08c379a00000000000000000000000000000000000000000000000000000000081526004016117bb90611acd565b60405180910390fd5b60008054906101000a900473ffffffffffffffffffffffffffffffffffffffff1673ffffffffffffffffffffffffffffffffffffffff1663aaa7c9e082846040518363ffffffff1660e01b815260040161181f929190611aed565b602060405180830381600087803b15801561183957600080fd5b505af115801561184d573d6000803e3d6000fd5b505050506040513d601f19601f820116820180604052508101906118719190611937565b505050565b600033905090565b60008135905061188d81611c6c565b92915050565b6000815190506118a281611c83565b92915050565b6000813590506118b781611c9a565b92915050565b6000815190506118cc81611c9a565b92915050565b6000602082840312156118e457600080fd5b60006118f28482850161187e565b91505092915050565b6000806040838503121561190e57600080fd5b600061191c8582860161187e565b925050602061192d858286016118a8565b9150509250929050565b60006020828403121561194957600080fd5b600061195784828501611893565b91505092915050565b60006020828403121561197257600080fd5b6000611980848285016118bd565b91505092915050565b61199281611b27565b82525050565b6119a181611b39565b82525050565b6119b081611b45565b82525050565b60006119c3603e83611b16565b91506119ce82611b7f565b604082019050919050565b60006119e6603383611b16565b91506119f182611bce565b604082019050919050565b6000611a09603083611b16565b9150611a1482611c1d565b604082019050919050565b611a2881611b6f565b82525050565b6000602082019050611a436000830184611989565b92915050565b6000602082019050611a5e6000830184611998565b92915050565b6000604082019050611a7960008301856119a7565b611a866020830184611989565b9392505050565b60006020820190508181036000830152611aa6816119b6565b9050919050565b60006020820190508181036000830152611ac6816119d9565b9050919050565b60006020820190508181036000830152611ae6816119fc565b9050919050565b6000604082019050611b026000830185611a1f565b611b0f6020830184611989565b9392505050565b600082825260208201905092915050565b6000611b3282611b4f565b9050919050565b60008115159050919050565b6000819050919050565b600073ffffffffffffffffffffffffffffffffffffffff82169050919050565b600063ffffffff82169050919050565b7f617070204552524f523a205468652073656e646572206973206e6f742061757460008201527f686f72697a656420746f20706572666f726d207468697320616374696f6e0000602082015250565b7f617070204552524f523a20546865206164647265737320686173206e6f74206260008201527f65656e20646973617070726f7665642079657400000000000000000000000000602082015250565b7f617070204552524f523a20546865206164647265737320686173206e6f74206260008201527f65656e20617070726f7665642079657400000000000000000000000000000000602082015250565b611c7581611b27565b8114611c8057600080fd5b50565b611c8c81611b39565b8114611c9757600080fd5b50565b611ca381611b6f565b8114611cae57600080fd5b5056fea2646970667358221220dd0a1b679e87f0ef779a429846e371b98d82297ec7157a0e295583461819191c64736f6c63430008030033",
  "immutableReferences": {},
  "source": "// SPDX-License-Identifier: MIT\r\n\r\n\r\npragma solidity ^0.8.0;\r\n\r\nimport \"./Membership_Storage.sol\";\r\n\r\ncontract ControlPanel is Context {\r\n    \r\n    //event approvalPush(address indexed addr, Membership_Storage.Role indexed by);\r\n    //event approvalPull(address indexed addr, Membership_Storage.Role indexed by);\r\n    //event teamChanged(address indexed addr, Membership_Storage.Role indexed from, Membership_Storage.Role indexed to);\r\n    \r\n    Membership_Storage private stor;\r\n    \r\n    mapping(address => bool) private approvalHR;\r\n    mapping(address => bool) private approvalVP;\r\n    mapping(address => bool) private approvalPresident;\r\n    \r\n    constructor(address addr) {\r\n        stor = Membership_Storage(addr);\r\n    }\r\n    \r\n    modifier onlyHR() {\r\n        require(stor.hasRole(keccak256(\"VP\"),_msgSender())||stor.hasRole(keccak256(\"HR\"),_msgSender())||stor.hasRole(keccak256(\"President\"),_msgSender()),\"app ERROR: The sender is not authorized to perform this action\");\r\n        _;\r\n    }\r\n    \r\n    function pushCheck(address addr) public view returns(bool) {\r\n        if(approvalHR[addr]&&approvalVP[addr]&&approvalPresident[addr]){\r\n            return true;\r\n        }\r\n        \r\n        return false;\r\n    }\r\n    \r\n    function pullCheck(address addr) public view returns(bool) {\r\n        if(!approvalHR[addr]&&!approvalVP[addr]&&!approvalPresident[addr]){\r\n            return true;\r\n        }\r\n        \r\n        return false;\r\n    }\r\n    \r\n    function approvePush(address addr) public onlyHR() returns(bool) {\r\n        if(stor.hasRole(keccak256(\"HR\"),_msgSender())){\r\n            approvalHR[addr] = true;\r\n        } else if(stor.hasRole(keccak256(\"VP\"),_msgSender())){\r\n            approvalVP[addr] = true;\r\n        } else if(stor.hasRole(keccak256(\"President\"),_msgSender())){\r\n            approvalPresident[addr] = true;\r\n        }\r\n        \r\n        //emit approvalPush(addr, stor._idToRole(stor._addressToID(_msgSender())));\r\n        \r\n        return true;\r\n    }\r\n    \r\n    function approvePull(address addr) public onlyHR() returns(bool) {\r\n        if(stor.hasRole(keccak256(\"HR\"),_msgSender())){\r\n            approvalHR[addr] = false;\r\n        } else if(stor.hasRole(keccak256(\"VP\"),_msgSender())){\r\n            approvalVP[addr] = false;\r\n        } else if(stor.hasRole(keccak256(\"President\"),_msgSender())){\r\n            approvalPresident[addr] = false;\r\n        }\r\n        \r\n        //emit approvalPull(addr, stor._idToRole(stor._addressToID(_msgSender())));\r\n        \r\n        return true;\r\n    }\r\n    \r\n    \r\n    function pushMember(address addr, uint32 id) public onlyHR() {\r\n        require(pushCheck(addr),\"app ERROR: The address has not been approved yet\");\r\n        \r\n        stor.addMember(id,addr);\r\n    }\r\n    \r\n    function pullMember(address addr) public onlyHR() {\r\n        require(pullCheck(addr),\"app ERROR: The address has not been disapproved yet\");\r\n        \r\n        stor.deleteMember(stor._addressToID(addr),addr);\r\n\r\n    }\r\n    \r\n    /*function changeTeam(address addr, Membership_Storage.Role role) public returns(bool) {\r\n        require(stor.hasRole(keccak256(\"HR\"),_msgSender()),\"app ERROR: The sender is not authorized to perform this action\");\r\n        \r\n        emit teamChanged(addr, stor._idToRole(stor._addressToID(addr)),role);\r\n        \r\n        stor.setIDtoRole(stor._addressToID(addr),role);\r\n        \r\n        return true;\r\n    }*/\r\n    \r\n    \r\n    \r\n}",
  "sourcePath": "C:/Users/ruben/OneDrive/Desktop/SC Test/contracts/ControlPanel.sol",
  "compiler": {
    "name": "solc",
    "version": "0.8.3+commit.8d00100c.Emscripten.clang"
  },
  "schemaVersion": "3.3.4",
  "updatedAt": "2021-04-20T20:48:05.149Z",
  "networkType": "ethereum",
  "devdoc": {
    "kind": "dev",
    "methods": {},
    "version": 1
  },
  "userdoc": {
    "kind": "user",
    "methods": {},
    "version": 1
  }
}