{
  "contractName": "Membership_Storage",
  "abi": [
    {
      "inputs": [],
      "stateMutability": "nonpayable",
      "type": "constructor"
    },
    {
      "anonymous": false,
      "inputs": [
        {
          "indexed": true,
          "internalType": "uint32",
          "name": "id",
          "type": "uint32"
        },
        {
          "indexed": true,
          "internalType": "address",
          "name": "addr",
          "type": "address"
        },
        {
          "indexed": true,
          "internalType": "address",
          "name": "sender",
          "type": "address"
        }
      ],
      "name": "MemberAdded",
      "type": "event"
    },
    {
      "anonymous": false,
      "inputs": [
        {
          "indexed": true,
          "internalType": "uint32",
          "name": "id",
          "type": "uint32"
        },
        {
          "indexed": true,
          "internalType": "address",
          "name": "addr",
          "type": "address"
        },
        {
          "indexed": true,
          "internalType": "address",
          "name": "sender",
          "type": "address"
        }
      ],
      "name": "MemberDeleted",
      "type": "event"
    },
    {
      "anonymous": false,
      "inputs": [
        {
          "indexed": true,
          "internalType": "uint32",
          "name": "to",
          "type": "uint32"
        },
        {
          "indexed": true,
          "internalType": "address",
          "name": "sender",
          "type": "address"
        }
      ],
      "name": "PresidentChanged",
      "type": "event"
    },
    {
      "anonymous": false,
      "inputs": [
        {
          "indexed": true,
          "internalType": "bytes32",
          "name": "role",
          "type": "bytes32"
        },
        {
          "indexed": true,
          "internalType": "bytes32",
          "name": "previousAdminRole",
          "type": "bytes32"
        },
        {
          "indexed": true,
          "internalType": "bytes32",
          "name": "newAdminRole",
          "type": "bytes32"
        }
      ],
      "name": "RoleAdminChanged",
      "type": "event"
    },
    {
      "anonymous": false,
      "inputs": [
        {
          "indexed": true,
          "internalType": "bytes32",
          "name": "role",
          "type": "bytes32"
        },
        {
          "indexed": true,
          "internalType": "address",
          "name": "account",
          "type": "address"
        },
        {
          "indexed": true,
          "internalType": "address",
          "name": "sender",
          "type": "address"
        }
      ],
      "name": "RoleGranted",
      "type": "event"
    },
    {
      "anonymous": false,
      "inputs": [
        {
          "indexed": true,
          "internalType": "bytes32",
          "name": "role",
          "type": "bytes32"
        },
        {
          "indexed": true,
          "internalType": "address",
          "name": "account",
          "type": "address"
        },
        {
          "indexed": true,
          "internalType": "address",
          "name": "sender",
          "type": "address"
        }
      ],
      "name": "RoleRevoked",
      "type": "event"
    },
    {
      "anonymous": false,
      "inputs": [
        {
          "indexed": true,
          "internalType": "uint32",
          "name": "to",
          "type": "uint32"
        },
        {
          "indexed": true,
          "internalType": "address",
          "name": "sender",
          "type": "address"
        }
      ],
      "name": "vpChanged",
      "type": "event"
    },
    {
      "inputs": [],
      "name": "AppRole",
      "outputs": [
        {
          "internalType": "bytes32",
          "name": "",
          "type": "bytes32"
        }
      ],
      "stateMutability": "view",
      "type": "function",
      "constant": true
    },
    {
      "inputs": [],
      "name": "DEFAULT_ADMIN_ROLE",
      "outputs": [
        {
          "internalType": "bytes32",
          "name": "",
          "type": "bytes32"
        }
      ],
      "stateMutability": "view",
      "type": "function",
      "constant": true
    },
    {
      "inputs": [],
      "name": "DeveloperAdmin",
      "outputs": [
        {
          "internalType": "bytes32",
          "name": "",
          "type": "bytes32"
        }
      ],
      "stateMutability": "view",
      "type": "function",
      "constant": true
    },
    {
      "inputs": [],
      "name": "DeveloperRole",
      "outputs": [
        {
          "internalType": "bytes32",
          "name": "",
          "type": "bytes32"
        }
      ],
      "stateMutability": "view",
      "type": "function",
      "constant": true
    },
    {
      "inputs": [],
      "name": "PresidentAdmin",
      "outputs": [
        {
          "internalType": "bytes32",
          "name": "",
          "type": "bytes32"
        }
      ],
      "stateMutability": "view",
      "type": "function",
      "constant": true
    },
    {
      "inputs": [],
      "name": "PresidentRole",
      "outputs": [
        {
          "internalType": "bytes32",
          "name": "",
          "type": "bytes32"
        }
      ],
      "stateMutability": "view",
      "type": "function",
      "constant": true
    },
    {
      "inputs": [],
      "name": "VP_Admin",
      "outputs": [
        {
          "internalType": "bytes32",
          "name": "",
          "type": "bytes32"
        }
      ],
      "stateMutability": "view",
      "type": "function",
      "constant": true
    },
    {
      "inputs": [],
      "name": "VP_Role",
      "outputs": [
        {
          "internalType": "bytes32",
          "name": "",
          "type": "bytes32"
        }
      ],
      "stateMutability": "view",
      "type": "function",
      "constant": true
    },
    {
      "inputs": [
        {
          "internalType": "bytes32",
          "name": "role",
          "type": "bytes32"
        }
      ],
      "name": "getRoleAdmin",
      "outputs": [
        {
          "internalType": "bytes32",
          "name": "",
          "type": "bytes32"
        }
      ],
      "stateMutability": "view",
      "type": "function",
      "constant": true
    },
    {
      "inputs": [
        {
          "internalType": "bytes32",
          "name": "role",
          "type": "bytes32"
        },
        {
          "internalType": "address",
          "name": "account",
          "type": "address"
        }
      ],
      "name": "grantRole",
      "outputs": [],
      "stateMutability": "nonpayable",
      "type": "function"
    },
    {
      "inputs": [
        {
          "internalType": "bytes32",
          "name": "role",
          "type": "bytes32"
        },
        {
          "internalType": "address",
          "name": "account",
          "type": "address"
        }
      ],
      "name": "hasRole",
      "outputs": [
        {
          "internalType": "bool",
          "name": "",
          "type": "bool"
        }
      ],
      "stateMutability": "view",
      "type": "function",
      "constant": true
    },
    {
      "inputs": [
        {
          "internalType": "bytes32",
          "name": "role",
          "type": "bytes32"
        },
        {
          "internalType": "address",
          "name": "account",
          "type": "address"
        }
      ],
      "name": "renounceRole",
      "outputs": [],
      "stateMutability": "nonpayable",
      "type": "function"
    },
    {
      "inputs": [
        {
          "internalType": "bytes32",
          "name": "role",
          "type": "bytes32"
        },
        {
          "internalType": "address",
          "name": "account",
          "type": "address"
        }
      ],
      "name": "revokeRole",
      "outputs": [],
      "stateMutability": "nonpayable",
      "type": "function"
    },
    {
      "inputs": [
        {
          "internalType": "bytes4",
          "name": "interfaceId",
          "type": "bytes4"
        }
      ],
      "name": "supportsInterface",
      "outputs": [
        {
          "internalType": "bool",
          "name": "",
          "type": "bool"
        }
      ],
      "stateMutability": "view",
      "type": "function",
      "constant": true
    },
    {
      "inputs": [],
      "name": "getPresident",
      "outputs": [
        {
          "internalType": "uint32",
          "name": "",
          "type": "uint32"
        }
      ],
      "stateMutability": "view",
      "type": "function",
      "constant": true
    },
    {
      "inputs": [],
      "name": "getVP",
      "outputs": [
        {
          "internalType": "uint32",
          "name": "",
          "type": "uint32"
        }
      ],
      "stateMutability": "view",
      "type": "function",
      "constant": true
    },
    {
      "inputs": [
        {
          "internalType": "address",
          "name": "addr",
          "type": "address"
        }
      ],
      "name": "_addressToID",
      "outputs": [
        {
          "internalType": "uint32",
          "name": "",
          "type": "uint32"
        }
      ],
      "stateMutability": "view",
      "type": "function",
      "constant": true
    },
    {
      "inputs": [
        {
          "internalType": "uint32",
          "name": "id",
          "type": "uint32"
        }
      ],
      "name": "_idToAddress",
      "outputs": [
        {
          "internalType": "address",
          "name": "",
          "type": "address"
        }
      ],
      "stateMutability": "view",
      "type": "function",
      "constant": true
    },
    {
      "inputs": [
        {
          "internalType": "uint32",
          "name": "id",
          "type": "uint32"
        }
      ],
      "name": "_isMember",
      "outputs": [
        {
          "internalType": "bool",
          "name": "",
          "type": "bool"
        }
      ],
      "stateMutability": "view",
      "type": "function",
      "constant": true
    },
    {
      "inputs": [
        {
          "internalType": "address",
          "name": "addr",
          "type": "address"
        }
      ],
      "name": "_isAddressUsed",
      "outputs": [
        {
          "internalType": "bool",
          "name": "",
          "type": "bool"
        }
      ],
      "stateMutability": "view",
      "type": "function",
      "constant": true
    },
    {
      "inputs": [],
      "name": "getTotMembers",
      "outputs": [
        {
          "internalType": "uint16",
          "name": "",
          "type": "uint16"
        }
      ],
      "stateMutability": "view",
      "type": "function",
      "constant": true
    },
    {
      "inputs": [
        {
          "internalType": "uint32",
          "name": "id",
          "type": "uint32"
        }
      ],
      "name": "setPresident",
      "outputs": [
        {
          "internalType": "bool",
          "name": "",
          "type": "bool"
        }
      ],
      "stateMutability": "nonpayable",
      "type": "function"
    },
    {
      "inputs": [
        {
          "internalType": "uint32",
          "name": "id",
          "type": "uint32"
        }
      ],
      "name": "setVP",
      "outputs": [
        {
          "internalType": "bool",
          "name": "",
          "type": "bool"
        }
      ],
      "stateMutability": "nonpayable",
      "type": "function"
    },
    {
      "inputs": [
        {
          "internalType": "uint32",
          "name": "id",
          "type": "uint32"
        },
        {
          "internalType": "address",
          "name": "addr",
          "type": "address"
        }
      ],
      "name": "setIDtoAddress",
      "outputs": [],
      "stateMutability": "nonpayable",
      "type": "function"
    },
    {
      "inputs": [
        {
          "internalType": "uint32",
          "name": "id",
          "type": "uint32"
        },
        {
          "internalType": "address",
          "name": "addr",
          "type": "address"
        }
      ],
      "name": "addMember",
      "outputs": [
        {
          "internalType": "bool",
          "name": "",
          "type": "bool"
        }
      ],
      "stateMutability": "nonpayable",
      "type": "function"
    },
    {
      "inputs": [
        {
          "internalType": "uint32",
          "name": "id",
          "type": "uint32"
        },
        {
          "internalType": "address",
          "name": "addr",
          "type": "address"
        }
      ],
      "name": "deleteMember",
      "outputs": [
        {
          "internalType": "bool",
          "name": "",
          "type": "bool"
        }
      ],
      "stateMutability": "nonpayable",
      "type": "function"
    }
  ],
  "bytecode": "0x60806040523480156200001157600080fd5b50620000647fe4908534c74d6a5bdfd3b1ff6c0cdaff6418140d4c5c84d5c706dfe7e9fdc28e7fa2e6945516b2f74d84a8cf4c39b2c6ef3f325dcf3f93e9a87190d4d67e4064086200024660201b60201c565b620000b67f06b2055d93e553612466ee9779ff29190c1fdb855eea0fe494815df32fcc8f577f0555f2d6c492990bb8bf66fa1b2a50ebae65a766bc07cc9cfdd9f093aea131b46200024660201b60201c565b620001087fe9382a7c65097a9587879afb193759dbfc4bfcfdf3e5a296379d7f2e1e5cacd17ff05d823bbeb808d3bce7a83576fb0aee6c31e1ca11c8e28b7234628855d54aa56200024660201b60201c565b6200015a7fb2b9c4740a8cb34b25aeee55b113c8140ec06bcb20cce0d897e3a1fdcc5528d87ff05d823bbeb808d3bce7a83576fb0aee6c31e1ca11c8e28b7234628855d54aa56200024660201b60201c565b6200018c7fa2e6945516b2f74d84a8cf4c39b2c6ef3f325dcf3f93e9a87190d4d67e40640830620002a360201b60201c565b620001be7f0555f2d6c492990bb8bf66fa1b2a50ebae65a766bc07cc9cfdd9f093aea131b430620002a360201b60201c565b620001ff7ff05d823bbeb808d3bce7a83576fb0aee6c31e1ca11c8e28b7234628855d54aa5620001f3620002b960201b60201c565b620002a360201b60201c565b620002407fe9382a7c65097a9587879afb193759dbfc4bfcfdf3e5a296379d7f2e1e5cacd162000234620002b960201b60201c565b620002a360201b60201c565b6200043b565b806200025883620002c160201b60201c565b837fbd79b86ffe0ab8e8776151514217cd7cacd52c909f66475c3af44e129f0b00ff60405160405180910390a480600080848152602001908152602001600020600101819055505050565b620002b58282620002e060201b60201c565b5050565b600033905090565b6000806000838152602001908152602001600020600101549050919050565b620002f28282620003d160201b60201c565b620003cd57600160008084815260200190815260200160002060000160008373ffffffffffffffffffffffffffffffffffffffff1673ffffffffffffffffffffffffffffffffffffffff16815260200190815260200160002060006101000a81548160ff02191690831515021790555062000372620002b960201b60201c565b73ffffffffffffffffffffffffffffffffffffffff168173ffffffffffffffffffffffffffffffffffffffff16837f2f8788117e7eff1d82e926ec794901d17c78024a50270940304540a733656f0d60405160405180910390a45b5050565b600080600084815260200190815260200160002060000160008373ffffffffffffffffffffffffffffffffffffffff1673ffffffffffffffffffffffffffffffffffffffff16815260200190815260200160002060009054906101000a900460ff16905092915050565b61280c806200044b6000396000f3fe608060405234801561001057600080fd5b506004361061018c5760003560e01c806391d14854116100de578063aaa7c9e011610097578063d547741f11610071578063d547741f146104af578063eb5be07e146104cb578063f506c51f146104fb578063fb3c42af1461052b5761018c565b8063aaa7c9e014610431578063c535ba2314610461578063c91bd3bf1461047f5761018c565b806391d148541461033557806396335af41461036557806396889a1a146103835780639b2afaff146103b3578063a217fddf146103e3578063a50c7b3f146104015761018c565b8063248a9ca31161014b57806336568abe1161012557806336568abe146102bf5780633f5121c0146102db578063416d3020146102f9578063439e1a94146103175761018c565b8063248a9ca314610255578063287e70d0146102855780632f2ff15d146102a35761018c565b8062738d22146101915780627979f8146101af57806301ffc9a7146101cd578063143aa36d146101fd5780631d21b7761461021b57806321d9c4b314610239575b600080fd5b61019961055b565b6040516101a691906122d3565b60405180910390f35b6101b7610575565b6040516101c491906122d3565b60405180910390f35b6101e760048036038101906101e29190611e84565b61058f565b6040516101f491906120f9565b60405180910390f35b610205610609565b6040516102129190612114565b60405180910390f35b61022361062d565b6040516102309190612114565b60405180910390f35b610253600480360381019061024e9190611ed6565b610651565b005b61026f600480360381019061026a9190611e1f565b610854565b60405161027c9190612114565b60405180910390f35b61028d610873565b60405161029a9190612114565b60405180910390f35b6102bd60048036038101906102b89190611e48565b610897565b005b6102d960048036038101906102d49190611e48565b6108fd565b005b6102e3610980565b6040516102f09190612114565b60405180910390f35b6103016109a4565b60405161030e9190612114565b60405180910390f35b61031f6109c8565b60405161032c9190612114565b60405180910390f35b61034f600480360381019061034a9190611e48565b6109ec565b60405161035c91906120f9565b60405180910390f35b61036d610a56565b60405161037a9190612114565b60405180910390f35b61039d60048036038101906103989190611ed6565b610a7a565b6040516103aa91906120f9565b60405180910390f35b6103cd60048036038101906103c89190611df6565b610eff565b6040516103da91906120f9565b60405180910390f35b6103eb610f55565b6040516103f89190612114565b60405180910390f35b61041b60048036038101906104169190611ead565b610f5c565b60405161042891906120f9565b60405180910390f35b61044b60048036038101906104469190611ed6565b610f92565b60405161045891906120f9565b60405180910390f35b610469611368565b60405161047691906122b8565b60405180910390f35b61049960048036038101906104949190611ead565b611380565b6040516104a691906120f9565b60405180910390f35b6104c960048036038101906104c49190611e48565b6116ea565b005b6104e560048036038101906104e09190611df6565b611750565b6040516104f291906122d3565b60405180910390f35b61051560048036038101906105109190611ead565b6117a9565b60405161052291906120f9565b60405180910390f35b61054560048036038101906105409190611ead565b611b13565b60405161055291906120de565b60405180910390f35b6000600160029054906101000a900463ffffffff16905090565b6000600160069054906101000a900463ffffffff16905090565b60007f7965db0b000000000000000000000000000000000000000000000000000000007bffffffffffffffffffffffffffffffffffffffffffffffffffffffff1916827bffffffffffffffffffffffffffffffffffffffffffffffffffffffff19161480610602575061060182611b5c565b5b9050919050565b7f06b2055d93e553612466ee9779ff29190c1fdb855eea0fe494815df32fcc8f5781565b7f0555f2d6c492990bb8bf66fa1b2a50ebae65a766bc07cc9cfdd9f093aea131b481565b61067761065c611bc6565b73ffffffffffffffffffffffffffffffffffffffff16611bce565b6106b6576040517f08c379a00000000000000000000000000000000000000000000000000000000081526004016106ad906121b8565b60405180910390fd5b6106e77fb2b9c4740a8cb34b25aeee55b113c8140ec06bcb20cce0d897e3a1fdcc5528d86106e2611bc6565b6109ec565b610726576040517f08c379a000000000000000000000000000000000000000000000000000000000815260040161071d90612198565b60405180910390fd5b81600260008263ffffffff1663ffffffff16815260200190815260200160002060009054906101000a900460ff16610793576040517f08c379a000000000000000000000000000000000000000000000000000000000815260040161078a90612158565b60405180910390fd5b81600460008563ffffffff1663ffffffff16815260200190815260200160002060006101000a81548173ffffffffffffffffffffffffffffffffffffffff021916908373ffffffffffffffffffffffffffffffffffffffff16021790555082600360008473ffffffffffffffffffffffffffffffffffffffff1673ffffffffffffffffffffffffffffffffffffffff16815260200190815260200160002060006101000a81548163ffffffff021916908363ffffffff160217905550505050565b6000806000838152602001908152602001600020600101549050919050565b7ff05d823bbeb808d3bce7a83576fb0aee6c31e1ca11c8e28b7234628855d54aa581565b6108b06108a383610854565b6108ab611bc6565b6109ec565b6108ef576040517f08c379a00000000000000000000000000000000000000000000000000000000081526004016108e690612178565b60405180910390fd5b6108f98282611be1565b5050565b610905611bc6565b73ffffffffffffffffffffffffffffffffffffffff168173ffffffffffffffffffffffffffffffffffffffff1614610972576040517f08c379a000000000000000000000000000000000000000000000000000000000815260040161096990612298565b60405180910390fd5b61097c8282611cc1565b5050565b7fe4908534c74d6a5bdfd3b1ff6c0cdaff6418140d4c5c84d5c706dfe7e9fdc28e81565b7fe9382a7c65097a9587879afb193759dbfc4bfcfdf3e5a296379d7f2e1e5cacd181565b7fb2b9c4740a8cb34b25aeee55b113c8140ec06bcb20cce0d897e3a1fdcc5528d881565b600080600084815260200190815260200160002060000160008373ffffffffffffffffffffffffffffffffffffffff1673ffffffffffffffffffffffffffffffffffffffff16815260200190815260200160002060009054906101000a900460ff16905092915050565b7fa2e6945516b2f74d84a8cf4c39b2c6ef3f325dcf3f93e9a87190d4d67e40640881565b6000610aa2610a87611bc6565b73ffffffffffffffffffffffffffffffffffffffff16611bce565b610ae1576040517f08c379a0000000000000000000000000000000000000000000000000000000008152600401610ad8906121b8565b60405180910390fd5b610b127fb2b9c4740a8cb34b25aeee55b113c8140ec06bcb20cce0d897e3a1fdcc5528d8610b0d611bc6565b6109ec565b610b51576040517f08c379a0000000000000000000000000000000000000000000000000000000008152600401610b4890612198565b60405180910390fd5b82600260008263ffffffff1663ffffffff16815260200190815260200160002060009054906101000a900460ff16610bbe576040517f08c379a0000000000000000000000000000000000000000000000000000000008152600401610bb590612158565b60405180910390fd5b8273ffffffffffffffffffffffffffffffffffffffff16600460008663ffffffff1663ffffffff16815260200190815260200160002060009054906101000a900473ffffffffffffffffffffffffffffffffffffffff1673ffffffffffffffffffffffffffffffffffffffff1614610c6b576040517f08c379a0000000000000000000000000000000000000000000000000000000008152600401610c6290612258565b60405180910390fd5b600160029054906101000a900463ffffffff1663ffffffff168463ffffffff161415610ccc576040517f08c379a0000000000000000000000000000000000000000000000000000000008152600401610cc390612238565b60405180910390fd5b600160069054906101000a900463ffffffff1663ffffffff168463ffffffff161415610d2d576040517f08c379a0000000000000000000000000000000000000000000000000000000008152600401610d2490612218565b60405180910390fd5b610d35611bc6565b73ffffffffffffffffffffffffffffffffffffffff168373ffffffffffffffffffffffffffffffffffffffff168563ffffffff167f9c317600217b5c685ee43deaef094d48d41925557a468c3f8cde8940d8b64e0d60405160405180910390a46001600081819054906101000a900461ffff1680929190610db590612391565b91906101000a81548161ffff021916908361ffff16021790555050600460008563ffffffff1663ffffffff16815260200190815260200160002060006101000a81549073ffffffffffffffffffffffffffffffffffffffff0219169055600360008473ffffffffffffffffffffffffffffffffffffffff1673ffffffffffffffffffffffffffffffffffffffff16815260200190815260200160002060006101000a81549063ffffffff02191690556000600260008663ffffffff1663ffffffff16815260200190815260200160002060006101000a81548160ff0219169083151502179055506000600560008573ffffffffffffffffffffffffffffffffffffffff1673ffffffffffffffffffffffffffffffffffffffff16815260200190815260200160002060006101000a81548160ff021916908315150217905550600191505092915050565b6000600560008373ffffffffffffffffffffffffffffffffffffffff1673ffffffffffffffffffffffffffffffffffffffff16815260200190815260200160002060009054906101000a900460ff169050919050565b6000801b81565b6000600260008363ffffffff1663ffffffff16815260200190815260200160002060009054906101000a900460ff169050919050565b6000610fba610f9f611bc6565b73ffffffffffffffffffffffffffffffffffffffff16611bce565b610ff9576040517f08c379a0000000000000000000000000000000000000000000000000000000008152600401610ff0906121b8565b60405180910390fd5b61102a7fb2b9c4740a8cb34b25aeee55b113c8140ec06bcb20cce0d897e3a1fdcc5528d8611025611bc6565b6109ec565b611069576040517f08c379a000000000000000000000000000000000000000000000000000000000815260040161106090612198565b60405180910390fd5b60001515600260008563ffffffff1663ffffffff16815260200190815260200160002060009054906101000a900460ff161515146110dc576040517f08c379a00000000000000000000000000000000000000000000000000000000081526004016110d390612278565b60405180910390fd5b60001515600560008473ffffffffffffffffffffffffffffffffffffffff1673ffffffffffffffffffffffffffffffffffffffff16815260200190815260200160002060009054906101000a900460ff1615151461116f576040517f08c379a0000000000000000000000000000000000000000000000000000000008152600401611166906121f8565b60405180910390fd5b611177611bc6565b73ffffffffffffffffffffffffffffffffffffffff168273ffffffffffffffffffffffffffffffffffffffff168463ffffffff167f7b3055b432f8a850f5c7f764f0cf449cdb40696cc6be9cc306ca5162c4cc138960405160405180910390a46001600081819054906101000a900461ffff16809291906111f7906123bb565b91906101000a81548161ffff021916908361ffff1602179055505082600360008473ffffffffffffffffffffffffffffffffffffffff1673ffffffffffffffffffffffffffffffffffffffff16815260200190815260200160002060006101000a81548163ffffffff021916908363ffffffff16021790555081600460008563ffffffff1663ffffffff16815260200190815260200160002060006101000a81548173ffffffffffffffffffffffffffffffffffffffff021916908373ffffffffffffffffffffffffffffffffffffffff1602179055506001600260008563ffffffff1663ffffffff16815260200190815260200160002060006101000a81548160ff0219169083151502179055506001600560008473ffffffffffffffffffffffffffffffffffffffff1673ffffffffffffffffffffffffffffffffffffffff16815260200190815260200160002060006101000a81548160ff0219169083151502179055506001905092915050565b6000600160009054906101000a900461ffff16905090565b60006113a861138d611bc6565b73ffffffffffffffffffffffffffffffffffffffff16611bce565b6113e7576040517f08c379a00000000000000000000000000000000000000000000000000000000081526004016113de906121b8565b60405180910390fd5b6114187fb2b9c4740a8cb34b25aeee55b113c8140ec06bcb20cce0d897e3a1fdcc5528d8611413611bc6565b6109ec565b611457576040517f08c379a000000000000000000000000000000000000000000000000000000000815260040161144e90612198565b60405180910390fd5b81600260008263ffffffff1663ffffffff16815260200190815260200160002060009054906101000a900460ff166114c4576040517f08c379a00000000000000000000000000000000000000000000000000000000081526004016114bb90612158565b60405180910390fd5b6114cc611bc6565b73ffffffffffffffffffffffffffffffffffffffff168363ffffffff167fb73cd21708fddddcfb054d87970bbd7644b97160408e227fcb6e29fdde8e434660405160405180910390a33073ffffffffffffffffffffffffffffffffffffffff1663d547741f7f06b2055d93e553612466ee9779ff29190c1fdb855eea0fe494815df32fcc8f5760046000600160069054906101000a900463ffffffff1663ffffffff1663ffffffff16815260200190815260200160002060009054906101000a900473ffffffffffffffffffffffffffffffffffffffff166040518363ffffffff1660e01b81526004016115c192919061212f565b600060405180830381600087803b1580156115db57600080fd5b505af11580156115ef573d6000803e3d6000fd5b505050503073ffffffffffffffffffffffffffffffffffffffff16632f2ff15d7f06b2055d93e553612466ee9779ff29190c1fdb855eea0fe494815df32fcc8f57600460008763ffffffff1663ffffffff16815260200190815260200160002060009054906101000a900473ffffffffffffffffffffffffffffffffffffffff166040518363ffffffff1660e01b815260040161168d92919061212f565b600060405180830381600087803b1580156116a757600080fd5b505af11580156116bb573d6000803e3d6000fd5b5050505082600160066101000a81548163ffffffff021916908363ffffffff1602179055506001915050919050565b6117036116f683610854565b6116fe611bc6565b6109ec565b611742576040517f08c379a0000000000000000000000000000000000000000000000000000000008152600401611739906121d8565b60405180910390fd5b61174c8282611cc1565b5050565b6000600360008373ffffffffffffffffffffffffffffffffffffffff1673ffffffffffffffffffffffffffffffffffffffff16815260200190815260200160002060009054906101000a900463ffffffff169050919050565b60006117d16117b6611bc6565b73ffffffffffffffffffffffffffffffffffffffff16611bce565b611810576040517f08c379a0000000000000000000000000000000000000000000000000000000008152600401611807906121b8565b60405180910390fd5b6118417fb2b9c4740a8cb34b25aeee55b113c8140ec06bcb20cce0d897e3a1fdcc5528d861183c611bc6565b6109ec565b611880576040517f08c379a000000000000000000000000000000000000000000000000000000000815260040161187790612198565b60405180910390fd5b81600260008263ffffffff1663ffffffff16815260200190815260200160002060009054906101000a900460ff166118ed576040517f08c379a00000000000000000000000000000000000000000000000000000000081526004016118e490612158565b60405180910390fd5b6118f5611bc6565b73ffffffffffffffffffffffffffffffffffffffff168363ffffffff167f3888ad8930a6cd17ab728f431c2b45b5c6f09209129db9306be4c282956bedb460405160405180910390a33073ffffffffffffffffffffffffffffffffffffffff1663d547741f7fe4908534c74d6a5bdfd3b1ff6c0cdaff6418140d4c5c84d5c706dfe7e9fdc28e60046000600160029054906101000a900463ffffffff1663ffffffff1663ffffffff16815260200190815260200160002060009054906101000a900473ffffffffffffffffffffffffffffffffffffffff166040518363ffffffff1660e01b81526004016119ea92919061212f565b600060405180830381600087803b158015611a0457600080fd5b505af1158015611a18573d6000803e3d6000fd5b5050505082600160026101000a81548163ffffffff021916908363ffffffff1602179055503073ffffffffffffffffffffffffffffffffffffffff16632f2ff15d7fe4908534c74d6a5bdfd3b1ff6c0cdaff6418140d4c5c84d5c706dfe7e9fdc28e600460008763ffffffff1663ffffffff16815260200190815260200160002060009054906101000a900473ffffffffffffffffffffffffffffffffffffffff166040518363ffffffff1660e01b8152600401611ad792919061212f565b600060405180830381600087803b158015611af157600080fd5b505af1158015611b05573d6000803e3d6000fd5b505050506001915050919050565b6000600460008363ffffffff1663ffffffff16815260200190815260200160002060009054906101000a900473ffffffffffffffffffffffffffffffffffffffff169050919050565b60007f01ffc9a7000000000000000000000000000000000000000000000000000000007bffffffffffffffffffffffffffffffffffffffffffffffffffffffff1916827bffffffffffffffffffffffffffffffffffffffffffffffffffffffff1916149050919050565b600033905090565b600080823b905060008111915050919050565b611beb82826109ec565b611cbd57600160008084815260200190815260200160002060000160008373ffffffffffffffffffffffffffffffffffffffff1673ffffffffffffffffffffffffffffffffffffffff16815260200190815260200160002060006101000a81548160ff021916908315150217905550611c62611bc6565b73ffffffffffffffffffffffffffffffffffffffff168173ffffffffffffffffffffffffffffffffffffffff16837f2f8788117e7eff1d82e926ec794901d17c78024a50270940304540a733656f0d60405160405180910390a45b5050565b611ccb82826109ec565b15611d9e57600080600084815260200190815260200160002060000160008373ffffffffffffffffffffffffffffffffffffffff1673ffffffffffffffffffffffffffffffffffffffff16815260200190815260200160002060006101000a81548160ff021916908315150217905550611d43611bc6565b73ffffffffffffffffffffffffffffffffffffffff168173ffffffffffffffffffffffffffffffffffffffff16837ff6391f5c32d9c69d2a47ea670b442974b53935d1edc7fd64eb21e047a839171b60405160405180910390a45b5050565b600081359050611db18161277a565b92915050565b600081359050611dc681612791565b92915050565b600081359050611ddb816127a8565b92915050565b600081359050611df0816127bf565b92915050565b600060208284031215611e0857600080fd5b6000611e1684828501611da2565b91505092915050565b600060208284031215611e3157600080fd5b6000611e3f84828501611db7565b91505092915050565b60008060408385031215611e5b57600080fd5b6000611e6985828601611db7565b9250506020611e7a85828601611da2565b9150509250929050565b600060208284031215611e9657600080fd5b6000611ea484828501611dcc565b91505092915050565b600060208284031215611ebf57600080fd5b6000611ecd84828501611de1565b91505092915050565b60008060408385031215611ee957600080fd5b6000611ef785828601611de1565b9250506020611f0885828601611da2565b9150509250929050565b611f1b816122ff565b82525050565b611f2a81612311565b82525050565b611f398161231d565b82525050565b6000611f4c6035836122ee565b9150611f5782612415565b604082019050919050565b6000611f6f602f836122ee565b9150611f7a82612464565b604082019050919050565b6000611f92602b836122ee565b9150611f9d826124b3565b604082019050919050565b6000611fb5602a836122ee565b9150611fc082612502565b604082019050919050565b6000611fd86030836122ee565b9150611fe382612551565b604082019050919050565b6000611ffb6031836122ee565b9150612006826125a0565b604082019050919050565b600061201e6033836122ee565b9150612029826125ef565b604082019050919050565b6000612041602e836122ee565b915061204c8261263e565b604082019050919050565b60006120646029836122ee565b915061206f8261268d565b604082019050919050565b60006120876039836122ee565b9150612092826126dc565b604082019050919050565b60006120aa602f836122ee565b91506120b58261272b565b604082019050919050565b6120c981612353565b82525050565b6120d881612381565b82525050565b60006020820190506120f36000830184611f12565b92915050565b600060208201905061210e6000830184611f21565b92915050565b60006020820190506121296000830184611f30565b92915050565b60006040820190506121446000830185611f30565b6121516020830184611f12565b9392505050565b6000602082019050818103600083015261217181611f3f565b9050919050565b6000602082019050818103600083015261219181611f62565b9050919050565b600060208201905081810360008301526121b181611f85565b9050919050565b600060208201905081810360008301526121d181611fa8565b9050919050565b600060208201905081810360008301526121f181611fcb565b9050919050565b6000602082019050818103600083015261221181611fee565b9050919050565b6000602082019050818103600083015261223181612011565b9050919050565b6000602082019050818103600083015261225181612034565b9050919050565b6000602082019050818103600083015261227181612057565b9050919050565b600060208201905081810360008301526122918161207a565b9050919050565b600060208201905081810360008301526122b18161209d565b9050919050565b60006020820190506122cd60008301846120c0565b92915050565b60006020820190506122e860008301846120cf565b92915050565b600082825260208201905092915050565b600061230a82612361565b9050919050565b60008115159050919050565b6000819050919050565b60007fffffffff0000000000000000000000000000000000000000000000000000000082169050919050565b600061ffff82169050919050565b600073ffffffffffffffffffffffffffffffffffffffff82169050919050565b600063ffffffff82169050919050565b600061239c82612353565b915060008214156123b0576123af6123e6565b5b600182039050919050565b60006123c682612353565b915061ffff8214156123db576123da6123e6565b5b600182019050919050565b7f4e487b7100000000000000000000000000000000000000000000000000000000600052601160045260246000fd5b7f73746f72616765204552524f523a20546869732073747564656e74206973206e60008201527f6f7420696e20746865206173736f63696174696f6e0000000000000000000000602082015250565b7f416363657373436f6e74726f6c3a2073656e646572206d75737420626520616e60008201527f2061646d696e20746f206772616e740000000000000000000000000000000000602082015250565b7f616363657373204552524f523a205468652073656e646572206973206e6f742060008201527f6120425342434120417070000000000000000000000000000000000000000000602082015250565b7f616363657373204552524f523a205468652073656e646572206973206e6f742060008201527f6120636f6e747261637400000000000000000000000000000000000000000000602082015250565b7f416363657373436f6e74726f6c3a2073656e646572206d75737420626520616e60008201527f2061646d696e20746f207265766f6b6500000000000000000000000000000000602082015250565b7f73746f72616765204552524f523a20546869732061646472657373206861732060008201527f6265656e20616c72656164792075736564000000000000000000000000000000602082015250565b7f73746f72616765204552524f523a20596f752063616e6e6f742064656c65746560008201527f20746865205669636520507265736964656e7400000000000000000000000000602082015250565b7f73746f72616765204552524f523a20596f752063616e6e6f742064656c65746560008201527f2074686520507265736964656e74000000000000000000000000000000000000602082015250565b7f73746f72616765204552524f523a20494420616e64206164647265737320646f60008201527f6e2774206d617463680000000000000000000000000000000000000000000000602082015250565b7f73746f72616765204552524f523a20546869732073747564656e74206973206160008201527f6c726561647920696e20746865206173736f63696174696f6e00000000000000602082015250565b7f416363657373436f6e74726f6c3a2063616e206f6e6c792072656e6f756e636560008201527f20726f6c657320666f722073656c660000000000000000000000000000000000602082015250565b612783816122ff565b811461278e57600080fd5b50565b61279a8161231d565b81146127a557600080fd5b50565b6127b181612327565b81146127bc57600080fd5b50565b6127c881612381565b81146127d357600080fd5b5056fea2646970667358221220bbcc4b928a46f5e2c28ca804f818031a1f59521cbc6809590dd8318a502870de64736f6c63430008030033",
  "immutableReferences": {},
  "source": "// SPDX-License-Identifier: MIT\r\n\r\n\r\npragma solidity ^0.8.0;\r\n\r\nimport \"./Membership_AccessManagement.sol\";\r\n    \r\n\r\ncontract Membership_Storage is Membership_AccessManagement {\r\n    \r\n    \r\n    event PresidentChanged(uint32 indexed to, address indexed sender);\r\n    event vpChanged(uint32 indexed to, address indexed sender);\r\n    event MemberAdded(uint32 indexed id, address indexed addr,address indexed sender);\r\n    event MemberDeleted(uint32 indexed id, address indexed addr, address indexed sender);\r\n    \r\n    //counters\r\n    uint16 private tot_Members;\r\n    \r\n    //heads\r\n    uint32 private President;\r\n    uint32 private VP;\r\n    \r\n    //basic mappings for membership\r\n    mapping(uint32 => bool) private isMember;\r\n    mapping(address => uint32) private addressToID;\r\n    mapping(uint32 => address) private idToAddress;\r\n    \r\n    //utility mappings\r\n    mapping(address => bool) private isAddressUsed;\r\n    \r\n    constructor() {\r\n        _setRoleAdmin(PresidentRole, PresidentAdmin);\r\n        _setRoleAdmin(VP_Role, VP_Admin);\r\n        _setRoleAdmin(DeveloperRole, DeveloperAdmin);   \r\n        _setRoleAdmin(AppRole, DeveloperAdmin);\r\n        \r\n        _setupRole(PresidentAdmin, address(this));\r\n        _setupRole(VP_Admin, address(this));\r\n        _setupRole(DeveloperAdmin, _msgSender());       \r\n        _setupRole(DeveloperRole, _msgSender());\r\n    }\r\n    \r\n    \r\n    //MODIFIERS\r\n    modifier memberCheck(uint32 id) {\r\n        require(isMember[id],\"storage ERROR: This student is not in the association\");\r\n        _;\r\n    }\r\n    \r\n    //heads getters\r\n    function getPresident() public view returns(uint32) {\r\n        return President;\r\n    }\r\n    function getVP() public view returns(uint32) {\r\n        return VP;\r\n    }\r\n    \r\n    //mappings getters\r\n    function _addressToID(address addr) public view returns(uint32) {\r\n        return addressToID[addr];\r\n    }\r\n    function _idToAddress(uint32 id) public view returns(address) {\r\n        return idToAddress[id];\r\n    }\r\n    function _isMember(uint32 id) public view returns(bool) {\r\n        return isMember[id];\r\n    }\r\n    function _isAddressUsed(address addr) public view returns(bool) {\r\n        return isAddressUsed[addr];\r\n    }\r\n    \r\n    //counter getter\r\n    function getTotMembers() public view returns(uint16){\r\n        return tot_Members;\r\n    }\r\n    \r\n    \r\n     //heads SETTERS\r\n    function setPresident(uint32 id) public onlyApps() memberCheck(id) returns(bool){\r\n        emit PresidentChanged(id, _msgSender());\r\n        \r\n        //revokes the role from precedent president\r\n        this.revokeRole(PresidentRole, idToAddress[President]);\r\n        \r\n        //uploads the new one and grants roles\r\n        President = id;     \r\n        this.grantRole(PresidentRole, idToAddress[id]);\r\n        \r\n        return true;\r\n    }\r\n\r\n    function setVP(uint32 id) public onlyApps() memberCheck(id) returns(bool) {\r\n        emit vpChanged(id, _msgSender());\r\n\r\n        this.revokeRole(VP_Role, idToAddress[VP]);\r\n        \r\n        this.grantRole(VP_Role, idToAddress[id]);\r\n        VP = id;\r\n\r\n        return true;\r\n    }\r\n    \r\n    \r\n    function setIDtoAddress(uint32 id,address addr) public onlyApps() memberCheck(id) {         \r\n        idToAddress[id] = addr;\r\n        addressToID[addr] = id;     //Sets the opposite one too\r\n    }\r\n    \r\n    function addMember(uint32 id,address addr) onlyApps() public returns(bool) {\r\n        /*\r\n        *  @dev President, Head of Communications and Data Manager cannot be added   \r\n        *\r\n        */\r\n        require(isMember[id] == false,\"storage ERROR: This student is already in the association\");\r\n        require(isAddressUsed[addr] == false, \"storage ERROR: This address has been already used\");\r\n\r\n        emit MemberAdded(id, addr, _msgSender());\r\n        \r\n        tot_Members++;                  //increases number of members\r\n        addressToID[addr] = id;         //compiles the mappings\r\n        idToAddress[id] = addr;                \r\n        isMember[id] = true;   \r\n        isAddressUsed[addr] = true;\r\n        \r\n        return true;\r\n    }\r\n    function deleteMember(uint32 id, address addr) public onlyApps() memberCheck(id) returns(bool) {\r\n        /*\r\n        *   @dev  President, Head of Communications and Data Manager cannot be deleted\r\n        *   \r\n        *\r\n        */\r\n        require(idToAddress[id] == addr, \"storage ERROR: ID and address don't match\");\r\n        require(id != (President), \"storage ERROR: You cannot delete the President\");\r\n        require(id != (VP), \"storage ERROR: You cannot delete the Vice President\");\r\n    \r\n        emit MemberDeleted(id, addr, _msgSender());\r\n        \r\n        tot_Members--;                  //decreases the number of members\r\n        delete idToAddress[id];         //deletes/resets mappings\r\n        delete addressToID[addr];\r\n        isMember[id] = false;\r\n        isAddressUsed[addr] = false;\r\n        \r\n        return true;\r\n        \r\n    }\r\n}",
  "sourcePath": "C:/Users/ruben/OneDrive/Desktop/SC Test/contracts/Membership_Storage.sol",
  "compiler": {
    "name": "solc",
    "version": "0.8.3+commit.8d00100c.Emscripten.clang"
  },
  "schemaVersion": "3.3.4",
  "updatedAt": "2021-04-20T20:48:05.266Z",
  "networkType": "ethereum",
  "devdoc": {
    "kind": "dev",
    "methods": {
      "getRoleAdmin(bytes32)": {
        "details": "Returns the admin role that controls `role`. See {grantRole} and {revokeRole}. To change a role's admin, use {_setRoleAdmin}."
      },
      "grantRole(bytes32,address)": {
        "details": "Grants `role` to `account`. If `account` had not been already granted `role`, emits a {RoleGranted} event. Requirements: - the caller must have ``role``'s admin role."
      },
      "hasRole(bytes32,address)": {
        "details": "Returns `true` if `account` has been granted `role`."
      },
      "renounceRole(bytes32,address)": {
        "details": "Revokes `role` from the calling account. Roles are often managed via {grantRole} and {revokeRole}: this function's purpose is to provide a mechanism for accounts to lose their privileges if they are compromised (such as when a trusted device is misplaced). If the calling account had been granted `role`, emits a {RoleRevoked} event. Requirements: - the caller must be `account`."
      },
      "revokeRole(bytes32,address)": {
        "details": "Revokes `role` from `account`. If `account` had been granted `role`, emits a {RoleRevoked} event. Requirements: - the caller must have ``role``'s admin role."
      },
      "supportsInterface(bytes4)": {
        "details": "See {IERC165-supportsInterface}."
      }
    },
    "version": 1
  },
  "userdoc": {
    "kind": "user",
    "methods": {},
    "version": 1
  }
}