{
  "contractName": "VotingPresident",
  "abi": [
    {
      "inputs": [
        {
          "internalType": "address",
          "name": "addr",
          "type": "address"
        }
      ],
      "stateMutability": "nonpayable",
      "type": "constructor"
    },
    {
      "anonymous": false,
      "inputs": [
        {
          "indexed": true,
          "internalType": "uint256",
          "name": "timestamp",
          "type": "uint256"
        },
        {
          "indexed": true,
          "internalType": "uint32[5]",
          "name": "candidates",
          "type": "uint32[5]"
        },
        {
          "indexed": true,
          "internalType": "uint32",
          "name": "developerId",
          "type": "uint32"
        }
      ],
      "name": "BallotStarted",
      "type": "event"
    },
    {
      "anonymous": false,
      "inputs": [
        {
          "indexed": true,
          "internalType": "uint256",
          "name": "timestamp",
          "type": "uint256"
        },
        {
          "indexed": true,
          "internalType": "uint32",
          "name": "winner",
          "type": "uint32"
        },
        {
          "indexed": true,
          "internalType": "uint32",
          "name": "developerId",
          "type": "uint32"
        }
      ],
      "name": "ElectionsEnded",
      "type": "event"
    },
    {
      "anonymous": false,
      "inputs": [
        {
          "indexed": true,
          "internalType": "uint256",
          "name": "timestamp",
          "type": "uint256"
        },
        {
          "indexed": true,
          "internalType": "uint32",
          "name": "developerId",
          "type": "uint32"
        }
      ],
      "name": "ElectionsStarted",
      "type": "event"
    },
    {
      "anonymous": false,
      "inputs": [
        {
          "indexed": true,
          "internalType": "address",
          "name": "addr",
          "type": "address"
        },
        {
          "indexed": true,
          "internalType": "uint32",
          "name": "id",
          "type": "uint32"
        }
      ],
      "name": "NewCandidate",
      "type": "event"
    },
    {
      "inputs": [
        {
          "internalType": "uint32",
          "name": "id",
          "type": "uint32"
        }
      ],
      "name": "hasVoted",
      "outputs": [
        {
          "internalType": "bool",
          "name": "",
          "type": "bool"
        }
      ],
      "stateMutability": "view",
      "type": "function",
      "constant": true
    },
    {
      "inputs": [],
      "name": "getState",
      "outputs": [
        {
          "internalType": "enum VotingPresident.State",
          "name": "",
          "type": "uint8"
        }
      ],
      "stateMutability": "view",
      "type": "function",
      "constant": true
    },
    {
      "inputs": [],
      "name": "getCandidates",
      "outputs": [
        {
          "internalType": "uint32[5]",
          "name": "",
          "type": "uint32[5]"
        }
      ],
      "stateMutability": "view",
      "type": "function",
      "constant": true
    },
    {
      "inputs": [
        {
          "internalType": "uint32",
          "name": "id",
          "type": "uint32"
        }
      ],
      "name": "getVotes",
      "outputs": [
        {
          "internalType": "uint8",
          "name": "",
          "type": "uint8"
        }
      ],
      "stateMutability": "view",
      "type": "function",
      "constant": true
    },
    {
      "inputs": [],
      "name": "getCurrentWinners",
      "outputs": [
        {
          "internalType": "uint32[5]",
          "name": "",
          "type": "uint32[5]"
        }
      ],
      "stateMutability": "view",
      "type": "function",
      "constant": true
    },
    {
      "inputs": [],
      "name": "startElections",
      "outputs": [
        {
          "internalType": "bool",
          "name": "",
          "type": "bool"
        }
      ],
      "stateMutability": "nonpayable",
      "type": "function"
    },
    {
      "inputs": [],
      "name": "endElections",
      "outputs": [
        {
          "internalType": "bool",
          "name": "",
          "type": "bool"
        }
      ],
      "stateMutability": "nonpayable",
      "type": "function"
    },
    {
      "inputs": [],
      "name": "launchBallot",
      "outputs": [
        {
          "internalType": "bool",
          "name": "",
          "type": "bool"
        }
      ],
      "stateMutability": "nonpayable",
      "type": "function"
    },
    {
      "inputs": [],
      "name": "candidate",
      "outputs": [
        {
          "internalType": "bool",
          "name": "",
          "type": "bool"
        }
      ],
      "stateMutability": "nonpayable",
      "type": "function"
    },
    {
      "inputs": [
        {
          "internalType": "uint32",
          "name": "id",
          "type": "uint32"
        }
      ],
      "name": "vote",
      "outputs": [],
      "stateMutability": "nonpayable",
      "type": "function"
    }
  ],
  "bytecode": "0x60806040526040518060a00160405280600060ff168152602001600060ff168152602001600060ff168152602001600060ff168152602001600060ff168152506001906005620000519291906200011b565b506040518060a00160405280600060ff168152602001600060ff168152602001600060ff168152602001600060ff168152602001600060ff1681525060029060056200009f9291906200011b565b50348015620000ad57600080fd5b5060405162003008380380620030088339818101604052810190620000d39190620001f8565b80600060016101000a81548173ffffffffffffffffffffffffffffffffffffffff021916908373ffffffffffffffffffffffffffffffffffffffff1602179055505062000272565b826005600701600890048101928215620001af5791602002820160005b838211156200017b57835183826101000a81548163ffffffff021916908360ff160217905550926020019260040160208160030104928301926001030262000138565b8015620001ad5782816101000a81549063ffffffff02191690556004016020816003010492830192600103026200017b565b505b509050620001be9190620001c2565b5090565b5b80821115620001dd576000816000905550600101620001c3565b5090565b600081519050620001f28162000258565b92915050565b6000602082840312156200020b57600080fd5b60006200021b84828501620001e1565b91505092915050565b6000620002318262000238565b9050919050565b600073ffffffffffffffffffffffffffffffffffffffff82169050919050565b620002638162000224565b81146200026f57600080fd5b50565b612d8680620002826000396000f3fe608060405234801561001057600080fd5b506004361061009e5760003560e01c80639094c763116100665780639094c7631461013957806399eeafab146101555780639bb192fd14610173578063a3bc9336146101a3578063babe588e146101c15761009e565b806306a49fce146100a35780631865c57d146100c15780635905491c146100df5780636c8381f8146100fd5780638f141c541461011b575b600080fd5b6100ab6101f1565b6040516100b891906126d3565b60405180910390f35b6100c9610268565b6040516100d69190612732565b60405180910390f35b6100e761027e565b6040516100f491906126ee565b60405180910390f35b610105610716565b60405161011291906126ee565b60405180910390f35b610123610d66565b60405161013091906126ee565b60405180910390f35b610153600480360381019061014e9190612397565b611179565b005b61015d6117e5565b60405161016a91906126ee565b60405180910390f35b61018d60048036038101906101889190612397565b611b41565b60405161019a91906128a8565b60405180910390f35b6101ab611c29565b6040516101b891906126d3565b60405180910390f35b6101db60048036038101906101d69190612397565b611ee7565b6040516101e891906126ee565b60405180910390f35b6101f961224d565b600160058060200260405190810160405280929190826005801561025e576020028201916000905b82829054906101000a900463ffffffff1663ffffffff16815260200190600401906020826003010492830192600103820291508084116102215790505b5050505050905090565b60008060009054906101000a900460ff16905090565b60008060019054906101000a900473ffffffffffffffffffffffffffffffffffffffff1673ffffffffffffffffffffffffffffffffffffffff166391d148547fe9382a7c65097a9587879afb193759dbfc4bfcfdf3e5a296379d7f2e1e5cacd16102e6611f24565b6040518363ffffffff1660e01b8152600401610303929190612709565b60206040518083038186803b15801561031b57600080fd5b505afa15801561032f573d6000803e3d6000fd5b505050506040513d601f19601f82011682018060405250810190610353919061236e565b610392576040517f08c379a00000000000000000000000000000000000000000000000000000000081526004016103899061286d565b60405180910390fd5b600060028111156103cc577f4e487b7100000000000000000000000000000000000000000000000000000000600052602160045260246000fd5b60008054906101000a900460ff166002811115610412577f4e487b7100000000000000000000000000000000000000000000000000000000600052602160045260246000fd5b1415610453576040517f08c379a000000000000000000000000000000000000000000000000000000000815260040161044a9061276d565b60405180910390fd5b61045b611f2c565b1561049b576040517f08c379a0000000000000000000000000000000000000000000000000000000008152600401610492906127cd565b60405180910390fd5b600060019054906101000a900473ffffffffffffffffffffffffffffffffffffffff1673ffffffffffffffffffffffffffffffffffffffff1663eb5be07e6104e1611f24565b6040518263ffffffff1660e01b81526004016104fd91906126b8565b60206040518083038186803b15801561051557600080fd5b505afa158015610529573d6000803e3d6000fd5b505050506040513d601f19601f8201168201806040525081019061054d91906123c0565b63ffffffff1661055b611c29565b600060058110610594577f4e487b7100000000000000000000000000000000000000000000000000000000600052603260045260246000fd5b602002015163ffffffff16427fd84dda878737ce58ea97a15847ead9981d20c781bd990af7e217fa440dab1eec60405160405180910390a460008060006101000a81548160ff02191690836002811115610617577f4e487b7100000000000000000000000000000000000000000000000000000000600052602160045260246000fd5b0217905550600060019054906101000a900473ffffffffffffffffffffffffffffffffffffffff1673ffffffffffffffffffffffffffffffffffffffff1663f506c51f610662611c29565b60006005811061069b577f4e487b7100000000000000000000000000000000000000000000000000000000600052603260045260246000fd5b60200201516040518263ffffffff1660e01b81526004016106bc919061288d565b602060405180830381600087803b1580156106d657600080fd5b505af11580156106ea573d6000803e3d6000fd5b505050506040513d601f19601f8201168201806040525081019061070e919061236e565b506001905090565b60008060019054906101000a900473ffffffffffffffffffffffffffffffffffffffff1673ffffffffffffffffffffffffffffffffffffffff1663a50c7b3f600060019054906101000a900473ffffffffffffffffffffffffffffffffffffffff1673ffffffffffffffffffffffffffffffffffffffff1663eb5be07e61079b611f24565b6040518263ffffffff1660e01b81526004016107b791906126b8565b60206040518083038186803b1580156107cf57600080fd5b505afa1580156107e3573d6000803e3d6000fd5b505050506040513d601f19601f8201168201806040525081019061080791906123c0565b6040518263ffffffff1660e01b8152600401610823919061288d565b60206040518083038186803b15801561083b57600080fd5b505afa15801561084f573d6000803e3d6000fd5b505050506040513d601f19601f82011682018060405250810190610873919061236e565b6108b2576040517f08c379a00000000000000000000000000000000000000000000000000000000081526004016108a9906127ad565b60405180910390fd5b600060028111156108ec577f4e487b7100000000000000000000000000000000000000000000000000000000600052602160045260246000fd5b60008054906101000a900460ff166002811115610932577f4e487b7100000000000000000000000000000000000000000000000000000000600052602160045260246000fd5b1415610973576040517f08c379a000000000000000000000000000000000000000000000000000000000815260040161096a9061276d565b60405180910390fd5b610a97600060019054906101000a900473ffffffffffffffffffffffffffffffffffffffff1673ffffffffffffffffffffffffffffffffffffffff1663eb5be07e6109bc611f24565b6040518263ffffffff1660e01b81526004016109d891906126b8565b60206040518083038186803b1580156109f057600080fd5b505afa158015610a04573d6000803e3d6000fd5b505050506040513d601f19601f82011682018060405250810190610a2891906123c0565b6001600580602002604051908101604052809291908260058015610a8d576020028201916000905b82829054906101000a900463ffffffff1663ffffffff1681526020019060040190602082600301049283019260010382029150808411610a505790505b505050505061212f565b15610ad7576040517f08c379a0000000000000000000000000000000000000000000000000000000008152600401610ace9061282d565b60405180910390fd5b600060019054906101000a900473ffffffffffffffffffffffffffffffffffffffff1673ffffffffffffffffffffffffffffffffffffffff1663eb5be07e610b1d611f24565b6040518263ffffffff1660e01b8152600401610b3991906126b8565b60206040518083038186803b158015610b5157600080fd5b505afa158015610b65573d6000803e3d6000fd5b505050506040513d601f19601f82011682018060405250810190610b8991906123c0565b63ffffffff16610b97611f24565b73ffffffffffffffffffffffffffffffffffffffff167f4acca4a70866d8a835cd89928281b2b2c19908b172c7265336bdcaede69549a160405160405180910390a3600060019054906101000a900473ffffffffffffffffffffffffffffffffffffffff1673ffffffffffffffffffffffffffffffffffffffff1663eb5be07e610c1f611f24565b6040518263ffffffff1660e01b8152600401610c3b91906126b8565b60206040518083038186803b158015610c5357600080fd5b505afa158015610c67573d6000803e3d6000fd5b505050506040513d601f19601f82011682018060405250810190610c8b91906123c0565b6001610cff6001600580602002604051908101604052809291908260058015610cf5576020028201916000905b82829054906101000a900463ffffffff1663ffffffff1681526020019060040190602082600301049283019260010382029150808411610cb85790505b50505050506121c0565b60058110610d36577f4e487b7100000000000000000000000000000000000000000000000000000000600052603260045260246000fd5b600891828204019190066004026101000a81548163ffffffff021916908363ffffffff1602179055506001905090565b60008060019054906101000a900473ffffffffffffffffffffffffffffffffffffffff1673ffffffffffffffffffffffffffffffffffffffff166391d148547fe9382a7c65097a9587879afb193759dbfc4bfcfdf3e5a296379d7f2e1e5cacd1610dce611f24565b6040518363ffffffff1660e01b8152600401610deb929190612709565b60206040518083038186803b158015610e0357600080fd5b505afa158015610e17573d6000803e3d6000fd5b505050506040513d601f19601f82011682018060405250810190610e3b919061236e565b610e7a576040517f08c379a0000000000000000000000000000000000000000000000000000000008152600401610e719061286d565b60405180910390fd5b60006002811115610eb4577f4e487b7100000000000000000000000000000000000000000000000000000000600052602160045260246000fd5b60008054906101000a900460ff166002811115610efa577f4e487b7100000000000000000000000000000000000000000000000000000000600052602160045260246000fd5b1415610f3b576040517f08c379a0000000000000000000000000000000000000000000000000000000008152600401610f329061276d565b60405180910390fd5b610f43611f2c565b610f82576040517f08c379a0000000000000000000000000000000000000000000000000000000008152600401610f799061284d565b60405180910390fd5b600060019054906101000a900473ffffffffffffffffffffffffffffffffffffffff1673ffffffffffffffffffffffffffffffffffffffff1663eb5be07e610fc8611f24565b6040518263ffffffff1660e01b8152600401610fe491906126b8565b60206040518083038186803b158015610ffc57600080fd5b505afa158015611010573d6000803e3d6000fd5b505050506040513d601f19601f8201168201806040525081019061103491906123c0565b63ffffffff16611042611c29565b60405161104f919061269d565b6040518091039020427fea8b552b70e2ff1bb7f59c5fa08a52d045b213b25647847269a9ada9fd22613360405160405180910390a460005b60058160ff1610156111015760028160ff16600581106110d0577f4e487b7100000000000000000000000000000000000000000000000000000000600052603260045260246000fd5b600891828204019190066004026101000a81549063ffffffff021916905580806110f990612996565b915050611087565b5061110a611c29565b600290600561111a92919061226f565b5060026000806101000a81548160ff02191690836002811115611166577f4e487b7100000000000000000000000000000000000000000000000000000000600052602160045260246000fd5b0217905550426004819055506001905090565b600060019054906101000a900473ffffffffffffffffffffffffffffffffffffffff1673ffffffffffffffffffffffffffffffffffffffff1663a50c7b3f600060019054906101000a900473ffffffffffffffffffffffffffffffffffffffff1673ffffffffffffffffffffffffffffffffffffffff1663eb5be07e6111fd611f24565b6040518263ffffffff1660e01b815260040161121991906126b8565b60206040518083038186803b15801561123157600080fd5b505afa158015611245573d6000803e3d6000fd5b505050506040513d601f19601f8201168201806040525081019061126991906123c0565b6040518263ffffffff1660e01b8152600401611285919061288d565b60206040518083038186803b15801561129d57600080fd5b505afa1580156112b1573d6000803e3d6000fd5b505050506040513d601f19601f820116820180604052508101906112d5919061236e565b611314576040517f08c379a000000000000000000000000000000000000000000000000000000000815260040161130b906127ad565b60405180910390fd5b6000600281111561134e577f4e487b7100000000000000000000000000000000000000000000000000000000600052602160045260246000fd5b60008054906101000a900460ff166002811115611394577f4e487b7100000000000000000000000000000000000000000000000000000000600052602160045260246000fd5b14156113d5576040517f08c379a00000000000000000000000000000000000000000000000000000000081526004016113cc9061276d565b60405180910390fd5b61144881600160058060200260405190810160405280929190826005801561143e576020028201916000905b82829054906101000a900463ffffffff1663ffffffff16815260200190600401906020826003010492830192600103820291508084116114015790505b505050505061212f565b611487576040517f08c379a000000000000000000000000000000000000000000000000000000000815260040161147e9061278d565b60405180910390fd5b611541600060019054906101000a900473ffffffffffffffffffffffffffffffffffffffff1673ffffffffffffffffffffffffffffffffffffffff1663eb5be07e6114d0611f24565b6040518263ffffffff1660e01b81526004016114ec91906126b8565b60206040518083038186803b15801561150457600080fd5b505afa158015611518573d6000803e3d6000fd5b505050506040513d601f19601f8201168201806040525081019061153c91906123c0565b611ee7565b15611581576040517f08c379a00000000000000000000000000000000000000000000000000000000081526004016115789061274d565b60405180910390fd5b6002808111156115ba577f4e487b7100000000000000000000000000000000000000000000000000000000600052602160045260246000fd5b60008054906101000a900460ff166002811115611600577f4e487b7100000000000000000000000000000000000000000000000000000000600052602160045260246000fd5b14156116b95761167981600260058060200260405190810160405280929190826005801561166f576020028201916000905b82829054906101000a900463ffffffff1663ffffffff16815260200190600401906020826003010492830192600103820291508084116116325790505b505050505061212f565b6116b8576040517f08c379a00000000000000000000000000000000000000000000000000000000081526004016116af906127ed565b60405180910390fd5b5b600360008263ffffffff1663ffffffff168152602001908152602001600020600081819054906101000a900460ff16809291906116f590612996565b91906101000a81548160ff021916908360ff1602179055505042600560008060019054906101000a900473ffffffffffffffffffffffffffffffffffffffff1673ffffffffffffffffffffffffffffffffffffffff1663eb5be07e611758611f24565b6040518263ffffffff1660e01b815260040161177491906126b8565b60206040518083038186803b15801561178c57600080fd5b505afa1580156117a0573d6000803e3d6000fd5b505050506040513d601f19601f820116820180604052508101906117c491906123c0565b63ffffffff1663ffffffff1681526020019081526020016000208190555050565b60008060019054906101000a900473ffffffffffffffffffffffffffffffffffffffff1673ffffffffffffffffffffffffffffffffffffffff166391d148547fe9382a7c65097a9587879afb193759dbfc4bfcfdf3e5a296379d7f2e1e5cacd161184d611f24565b6040518363ffffffff1660e01b815260040161186a929190612709565b60206040518083038186803b15801561188257600080fd5b505afa158015611896573d6000803e3d6000fd5b505050506040513d601f19601f820116820180604052508101906118ba919061236e565b6118f9576040517f08c379a00000000000000000000000000000000000000000000000000000000081526004016118f09061286d565b60405180910390fd5b600060019054906101000a900473ffffffffffffffffffffffffffffffffffffffff1673ffffffffffffffffffffffffffffffffffffffff1663eb5be07e61193f611f24565b6040518263ffffffff1660e01b815260040161195b91906126b8565b60206040518083038186803b15801561197357600080fd5b505afa158015611987573d6000803e3d6000fd5b505050506040513d601f19601f820116820180604052508101906119ab91906123c0565b63ffffffff16427f0246f878c3bab0b57febeea52c57d3439b76680991abc9d86fc56ed981de829c60405160405180910390a360005b60058160ff161015611ae2576003600060018360ff1660058110611a2e577f4e487b7100000000000000000000000000000000000000000000000000000000600052603260045260246000fd5b600891828204019190066004029054906101000a900463ffffffff1663ffffffff1663ffffffff16815260200190815260200160002060006101000a81549060ff021916905560018160ff1660058110611ab1577f4e487b7100000000000000000000000000000000000000000000000000000000600052603260045260246000fd5b600891828204019190066004026101000a81549063ffffffff02191690558080611ada90612996565b9150506119e1565b5060016000806101000a81548160ff02191690836002811115611b2e577f4e487b7100000000000000000000000000000000000000000000000000000000600052602160045260246000fd5b0217905550426004819055506001905090565b6000611bb6826001600580602002604051908101604052809291908260058015611bac576020028201916000905b82829054906101000a900463ffffffff1663ffffffff1681526020019060040190602082600301049283019260010382029150808411611b6f5790505b505050505061212f565b611bf5576040517f08c379a0000000000000000000000000000000000000000000000000000000008152600401611bec9061280d565b60405180910390fd5b600360008363ffffffff1663ffffffff16815260200190815260200160002060009054906101000a900460ff169050919050565b611c3161224d565b6000611c3b61224d565b60005b60058160ff161015611d77578260ff166003600060018460ff1660058110611c8f577f4e487b7100000000000000000000000000000000000000000000000000000000600052603260045260246000fd5b600891828204019190066004029054906101000a900463ffffffff1663ffffffff1663ffffffff16815260200190815260200160002060009054906101000a900460ff1660ff161115611d64576003600060018360ff1660058110611d1d577f4e487b7100000000000000000000000000000000000000000000000000000000600052603260045260246000fd5b600891828204019190066004029054906101000a900463ffffffff1663ffffffff1663ffffffff16815260200190815260200160002060009054906101000a900460ff1692505b8080611d6f90612996565b915050611c3e565b5060005b60058160ff161015611ede578260ff166003600060018460ff1660058110611dcc577f4e487b7100000000000000000000000000000000000000000000000000000000600052603260045260246000fd5b600891828204019190066004029054906101000a900463ffffffff1663ffffffff1663ffffffff16815260200190815260200160002060009054906101000a900460ff1660ff161415611ecb5760018160ff1660058110611e56577f4e487b7100000000000000000000000000000000000000000000000000000000600052603260045260246000fd5b600891828204019190066004029054906101000a900463ffffffff1682611e7c846121c0565b60058110611eb3577f4e487b7100000000000000000000000000000000000000000000000000000000600052603260045260246000fd5b602002019063ffffffff16908163ffffffff16815250505b8080611ed690612996565b915050611d7b565b50809250505090565b6000600454600560008463ffffffff1663ffffffff1681526020019081526020016000205410611f1a5760019050611f1f565b600090505b919050565b600033905090565b600080600080600090505b60058160ff16101561210b578160ff166003600060018460ff1660058110611f88577f4e487b7100000000000000000000000000000000000000000000000000000000600052603260045260246000fd5b600891828204019190066004029054906101000a900463ffffffff1663ffffffff1663ffffffff16815260200190815260200160002060009054906101000a900460ff1660ff161415611fdd578192506120f8565b8160ff166003600060018460ff1660058110612022577f4e487b7100000000000000000000000000000000000000000000000000000000600052603260045260246000fd5b600891828204019190066004029054906101000a900463ffffffff1663ffffffff1663ffffffff16815260200190815260200160002060009054906101000a900460ff1660ff1611156120f7576003600060018360ff16600581106120b0577f4e487b7100000000000000000000000000000000000000000000000000000000600052603260045260246000fd5b600891828204019190066004029054906101000a900463ffffffff1663ffffffff1663ffffffff16815260200190815260200160002060009054906101000a900460ff1691505b5b808061210390612996565b915050611f37565b508060ff168260ff1614156121255760019250505061212c565b6000925050505b90565b600080600090505b60058160ff1610156121b457828160ff166005811061217f577f4e487b7100000000000000000000000000000000000000000000000000000000600052603260045260246000fd5b602002015163ffffffff168463ffffffff1614156121a15760019150506121ba565b80806121ac90612996565b915050612137565b50600090505b92915050565b600080600090505b60058160ff161015612242576000838260ff1660058110612212577f4e487b7100000000000000000000000000000000000000000000000000000000600052603260045260246000fd5b602002015163ffffffff16141561222f578060ff16915050612248565b808061223a90612996565b9150506121c8565b50600a90505b919050565b6040518060a00160405280600590602082028036833780820191505090505090565b8260056007016008900481019282156123015791602002820160005b838211156122cf57835183826101000a81548163ffffffff021916908363ffffffff160217905550926020019260040160208160030104928301926001030261228b565b80156122ff5782816101000a81549063ffffffff02191690556004016020816003010492830192600103026122cf565b505b50905061230e9190612312565b5090565b5b8082111561232b576000816000905550600101612313565b5090565b60008151905061233e81612d22565b92915050565b60008135905061235381612d39565b92915050565b60008151905061236881612d39565b92915050565b60006020828403121561238057600080fd5b600061238e8482850161232f565b91505092915050565b6000602082840312156123a957600080fd5b60006123b784828501612344565b91505092915050565b6000602082840312156123d257600080fd5b60006123e084828501612359565b91505092915050565b60006123f58383612661565b60208301905092915050565b600061240d838361267f565b60208301905092915050565b6124228161290c565b82525050565b612431816128cd565b61243b81846128e5565b9250612446826128c3565b8060005b8381101561247757815161245e87826123e9565b9650612469836128d8565b92505060018101905061244a565b505050505050565b612488816128cd565b61249281846128f0565b925061249d826128c3565b8060005b838110156124ce5781516124b58782612401565b96506124c0836128d8565b9250506001810190506124a1565b505050505050565b6124df8161291e565b82525050565b6124ee8161292a565b82525050565b6124fd81612984565b82525050565b60006125106027836128fb565b915061251b82612a1e565b604082019050919050565b6000612533602d836128fb565b915061253e82612a6d565b604082019050919050565b60006125566031836128fb565b915061256182612abc565b604082019050919050565b6000612579602f836128fb565b915061258482612b0b565b604082019050919050565b600061259c6017836128fb565b91506125a782612b5a565b602082019050919050565b60006125bf6032836128fb565b91506125ca82612b83565b604082019050919050565b60006125e26025836128fb565b91506125ed82612bd2565b604082019050919050565b6000612605602c836128fb565b915061261082612c21565b604082019050919050565b60006126286026836128fb565b915061263382612c70565b604082019050919050565b600061264b6029836128fb565b915061265682612cbf565b604082019050919050565b61266a81612967565b82525050565b61267981612967565b82525050565b61268881612967565b82525050565b61269781612977565b82525050565b60006126a9828461247f565b60a08201915081905092915050565b60006020820190506126cd6000830184612419565b92915050565b600060a0820190506126e86000830184612428565b92915050565b600060208201905061270360008301846124d6565b92915050565b600060408201905061271e60008301856124e5565b61272b6020830184612419565b9392505050565b600060208201905061274760008301846124f4565b92915050565b6000602082019050818103600083015261276681612503565b9050919050565b6000602082019050818103600083015261278681612526565b9050919050565b600060208201905081810360008301526127a681612549565b9050919050565b600060208201905081810360008301526127c68161256c565b9050919050565b600060208201905081810360008301526127e68161258f565b9050919050565b60006020820190508181036000830152612806816125b2565b9050919050565b60006020820190508181036000830152612826816125d5565b9050919050565b60006020820190508181036000830152612846816125f8565b9050919050565b600060208201905081810360008301526128668161261b565b9050919050565b600060208201905081810360008301526128868161263e565b9050919050565b60006020820190506128a26000830184612670565b92915050565b60006020820190506128bd600083018461268e565b92915050565b6000819050919050565b600060059050919050565b6000602082019050919050565b600081905092915050565b600081905092915050565b600082825260208201905092915050565b600061291782612947565b9050919050565b60008115159050919050565b6000819050919050565b600081905061294282612d0e565b919050565b600073ffffffffffffffffffffffffffffffffffffffff82169050919050565b600063ffffffff82169050919050565b600060ff82169050919050565b600061298f82612934565b9050919050565b60006129a182612977565b915060ff8214156129b5576129b46129c0565b5b600182019050919050565b7f4e487b7100000000000000000000000000000000000000000000000000000000600052601160045260246000fd5b7f4e487b7100000000000000000000000000000000000000000000000000000000600052602160045260246000fd5b7f617070204552524f523a205468652073656e6465722068617320616c7265616460008201527f7920766f74656400000000000000000000000000000000000000000000000000602082015250565b7f617070204552524f523a2054686520656c656374696f6e732068617665206e6f60008201527f7420737461727465642079657400000000000000000000000000000000000000602082015250565b7f617070204552524f523a2054686520766f746564204944206973206e6f74206960008201527f6e20746865206173736f63696174696f6e000000000000000000000000000000602082015250565b7f617070204552524f523a205468652073656e646572206973206e6f7420696e2060008201527f746865206173736f63696174696f6e0000000000000000000000000000000000602082015250565b7f617070204552524f523a20497427732061206472617721000000000000000000600082015250565b7f617070204552524f523a205468652063616e646964617465206973206e6f742060008201527f696e207468652062616c6c6f74206c6973740000000000000000000000000000602082015250565b7f617070204552524f523a2054686973204944206973206e6f7420612063616e6460008201527f6964617465000000000000000000000000000000000000000000000000000000602082015250565b7f617070204552524f523a205468652073656e64657220697320616c726561647960008201527f20612063616e6469646174650000000000000000000000000000000000000000602082015250565b7f617070204552524f523a205468657265277320616e206162736f6c757465207760008201527f696e6e6572210000000000000000000000000000000000000000000000000000602082015250565b7f617070204552524f523a205448652073656e646572206d75737420626520612060008201527f446576656c6f7065720000000000000000000000000000000000000000000000602082015250565b60038110612d1f57612d1e6129ef565b5b50565b612d2b8161291e565b8114612d3657600080fd5b50565b612d4281612967565b8114612d4d57600080fd5b5056fea264697066735822122095e6feb2030535bb2191dbdb344d59e2144eae8df8756110a8a0a9c8dcfcde5464736f6c63430008030033",
  "immutableReferences": {},
  "source": "// SPDX-License-Identifier: MIT\r\n\r\n\r\npragma solidity ^0.8.0;\r\n\r\nimport \"./Membership_Storage.sol\";\r\n\r\n\r\ncontract VotingPresident is Context {\r\n    \r\n    //events\r\n    event NewCandidate(address indexed addr, uint32 indexed id);\r\n    event ElectionsStarted(uint indexed timestamp, uint32 indexed developerId);\r\n    event ElectionsEnded(uint indexed timestamp,uint32 indexed winner, uint32 indexed developerId);\r\n    event BallotStarted(uint indexed timestamp,uint32[5] indexed candidates, uint32 indexed developerId);\r\n    \r\n    \r\n    enum State {nul, started, ballot}\r\n    State actualState;\r\n    \r\n    Membership_Storage private stor;\r\n    \r\n    uint32[5] private candidates = [0,0,0,0,0];\r\n    uint32[5] private ballotList = [0,0,0,0,0];\r\n    mapping(uint32 => uint8) private candidateToVotes;\r\n    \r\n    uint private voteTime;\r\n    mapping(uint32 => uint) private lastVoteTime;\r\n    \r\n    constructor(address addr) {\r\n        stor = Membership_Storage(addr);\r\n    }\r\n    \r\n    //modifiers\r\n    modifier onlyDevelopers() {\r\n        require(stor.hasRole(keccak256(\"Developer\"),_msgSender()),\"app ERROR: THe sender must be a Developer\");\r\n        _;\r\n    }\r\n    \r\n    modifier hasStarted() {\r\n        require(actualState != State.nul,\"app ERROR: The elections have not started yet\");\r\n        _;\r\n    }\r\n    \r\n    modifier onlyMembers() {\r\n        require(stor._isMember(stor._addressToID(_msgSender())),\"app ERROR: The sender is not in the association\");\r\n        _;\r\n    }\r\n    \r\n    //utilities\r\n    function isInList(uint32 id,uint32[5] memory list) private pure returns(bool){\r\n        for(uint8 i=0;i<5;i++){\r\n            if(id == list[i]){\r\n                return true;\r\n            }\r\n        }\r\n        \r\n        return false;\r\n    }\r\n    \r\n    function checkDraw() private view returns(bool){\r\n        uint8 draw;\r\n        uint8 higher;\r\n        \r\n        for(uint8 i=0;i<5;i++){\r\n            if(candidateToVotes[candidates[i]] == higher){\r\n                draw = higher;\r\n            }\r\n            else if(candidateToVotes[candidates[i]] > higher){\r\n                higher = candidateToVotes[candidates[i]];\r\n            }\r\n        }\r\n        \r\n        if(draw == higher){\r\n            return true;\r\n        } else {\r\n            return false;\r\n        }\r\n    }\r\n    function freeIndex(uint32[5] memory list) private pure returns(uint256) {\r\n        for(uint8 i = 0; i<5; i++){\r\n            if(list[i] == 0){\r\n                return i;\r\n            }\r\n        }\r\n        return 10;\r\n    }\r\n    function hasVoted(uint32 id) public view returns(bool){\r\n        if(lastVoteTime[id] >= voteTime){\r\n            return true;\r\n        } else {\r\n            return false;\r\n        }\r\n    }\r\n    \r\n    //getters\r\n    function getState() public view returns(State){\r\n        return actualState;\r\n    }\r\n    function getCandidates() public view returns(uint32[5] memory){\r\n        return candidates;\r\n    }\r\n    function getVotes(uint32 id) public view returns(uint8) {\r\n        require(isInList(id,candidates),\"app ERROR: This ID is not a candidate\");\r\n        \r\n        return candidateToVotes[id];\r\n    }\r\n    function getCurrentWinners() public view returns(uint32[5] memory){\r\n        uint8 higher = 0;\r\n        uint32[5] memory output;\r\n        \r\n        for(uint8 i=0;i<5;i++){\r\n            if(candidateToVotes[candidates[i]] > higher){\r\n                higher = candidateToVotes[candidates[i]];\r\n            }\r\n        }\r\n        \r\n        for(uint8 i=0;i<5;i++){\r\n            if(candidateToVotes[candidates[i]] == higher){\r\n                output[freeIndex(output)] = candidates[i];\r\n            }\r\n        }\r\n        \r\n        return output;\r\n    }\r\n    \r\n    //setters\r\n    function startElections() public onlyDevelopers() returns(bool) {\r\n        emit ElectionsStarted(block.timestamp,stor._addressToID(_msgSender()));\r\n        \r\n        for(uint8 i=0;i<5;i++){\r\n            delete candidateToVotes[candidates[i]];\r\n            delete candidates[i];\r\n        }\r\n        \r\n        actualState = State.started;\r\n        voteTime = block.timestamp;\r\n        \r\n        return true;\r\n    }\r\n    \r\n    function endElections() public onlyDevelopers() hasStarted() returns(bool){\r\n        require(!checkDraw(),\"app ERROR: It's a draw!\");\r\n        emit ElectionsEnded(block.timestamp,getCurrentWinners()[0],stor._addressToID(_msgSender()));\r\n        \r\n        actualState = State.nul;\r\n        \r\n        stor.setPresident(getCurrentWinners()[0]);\r\n        \r\n        return true;\r\n    }\r\n    \r\n    function launchBallot() public onlyDevelopers() hasStarted() returns(bool){\r\n        require(checkDraw(),\"app ERROR: There's an absolute winner!\");\r\n        \r\n        emit BallotStarted(block.timestamp,getCurrentWinners(),stor._addressToID(_msgSender()));\r\n        \r\n        for(uint8 i=0;i<5;i++){\r\n            delete ballotList[i];\r\n        }\r\n        \r\n        ballotList = getCurrentWinners();\r\n        actualState = State.ballot;\r\n        voteTime = block.timestamp;\r\n        \r\n        return true;\r\n    }\r\n    \r\n    function candidate() public onlyMembers() hasStarted() returns(bool){\r\n        require(!isInList(stor._addressToID(_msgSender()),candidates),\"app ERROR: The sender is already a candidate\");\r\n        emit NewCandidate(_msgSender(),stor._addressToID(_msgSender()));\r\n        \r\n        candidates[freeIndex(candidates)] = stor._addressToID(_msgSender());\r\n        \r\n        return true;\r\n    }\r\n    \r\n    function vote(uint32 id) public onlyMembers() hasStarted() {\r\n        require(isInList(id,candidates),\"app ERROR: The voted ID is not in the association\");\r\n        require(!hasVoted(stor._addressToID(_msgSender())),\"app ERROR: The sender has already voted\");\r\n        \r\n        if(actualState == State.ballot){\r\n            if(!isInList(id,ballotList)){\r\n                revert(\"app ERROR: The candidate is not in the ballot list\");\r\n            }\r\n        }\r\n        \r\n        candidateToVotes[id] ++;\r\n        lastVoteTime[stor._addressToID(_msgSender())] = block.timestamp;\r\n    }\r\n}",
  "sourcePath": "C:/Users/ruben/OneDrive/Desktop/SC Test/contracts/VotingPresident.sol",
  "compiler": {
    "name": "solc",
    "version": "0.8.3+commit.8d00100c.Emscripten.clang"
  },
  "schemaVersion": "3.3.4",
  "updatedAt": "2021-04-20T20:48:05.402Z",
  "networkType": "ethereum",
  "devdoc": {
    "kind": "dev",
    "methods": {},
    "version": 1
  },
  "userdoc": {
    "kind": "user",
    "methods": {},
    "version": 1
  }
}